{"contracts/voting.sol":{"VotingSystem":{"abi":[{"inputs":[],"stateMutability":"nonpayable","type":"constructor"},{"anonymous":false,"inputs":[{"indexed":false,"internalType":"string","name":"position","type":"string"},{"indexed":false,"internalType":"uint256","name":"candidateId","type":"uint256"},{"indexed":false,"internalType":"string","name":"name","type":"string"}],"name":"CandidateAdded","type":"event"},{"anonymous":false,"inputs":[{"indexed":true,"internalType":"address","name":"voter","type":"address"},{"indexed":false,"internalType":"string","name":"position","type":"string"},{"indexed":false,"internalType":"uint256","name":"candidateId","type":"uint256"}],"name":"Voted","type":"event"},{"anonymous":false,"inputs":[],"name":"VotingEnded","type":"event"},{"anonymous":false,"inputs":[{"indexed":false,"internalType":"uint256","name":"startTime","type":"uint256"},{"indexed":false,"internalType":"uint256","name":"endTime","type":"uint256"}],"name":"VotingStarted","type":"event"},{"anonymous":false,"inputs":[{"indexed":false,"internalType":"string","name":"position","type":"string"},{"indexed":false,"internalType":"string","name":"name","type":"string"},{"indexed":false,"internalType":"uint256","name":"votes","type":"uint256"}],"name":"WinnerDeclared","type":"event"},{"inputs":[{"internalType":"string","name":"position","type":"string"},{"internalType":"string","name":"_name","type":"string"}],"name":"addCandidate","outputs":[],"stateMutability":"nonpayable","type":"function"},{"inputs":[],"name":"endVoting","outputs":[],"stateMutability":"nonpayable","type":"function"},{"inputs":[{"internalType":"string","name":"position","type":"string"},{"internalType":"uint256","name":"candidateId","type":"uint256"}],"name":"getCandidate","outputs":[{"internalType":"string","name":"","type":"string"},{"internalType":"uint256","name":"","type":"uint256"}],"stateMutability":"view","type":"function"},{"inputs":[{"internalType":"string","name":"position","type":"string"}],"name":"getCandidateCount","outputs":[{"internalType":"uint256","name":"","type":"uint256"}],"stateMutability":"view","type":"function"},{"inputs":[],"name":"getOwner","outputs":[{"internalType":"address","name":"","type":"address"}],"stateMutability":"view","type":"function"},{"inputs":[],"name":"getPositions","outputs":[{"internalType":"string[]","name":"","type":"string[]"}],"stateMutability":"view","type":"function"},{"inputs":[{"internalType":"bytes32","name":"positionKey","type":"bytes32"}],"name":"getWinners","outputs":[{"internalType":"string[]","name":"names","type":"string[]"},{"internalType":"uint256","name":"votes","type":"uint256"}],"stateMutability":"view","type":"function"},{"inputs":[{"internalType":"string","name":"position","type":"string"}],"name":"getWinnersByPosition","outputs":[{"internalType":"string[]","name":"","type":"string[]"},{"internalType":"uint256","name":"","type":"uint256"}],"stateMutability":"view","type":"function"},{"inputs":[{"internalType":"address","name":"voterAddr","type":"address"},{"internalType":"string","name":"position","type":"string"}],"name":"hasVoted","outputs":[{"internalType":"bool","name":"","type":"bool"}],"stateMutability":"view","type":"function"},{"inputs":[],"name":"owner","outputs":[{"internalType":"address","name":"","type":"address"}],"stateMutability":"view","type":"function"},{"inputs":[{"internalType":"uint256","name":"_start","type":"uint256"},{"internalType":"uint256","name":"_end","type":"uint256"}],"name":"setVotingPeriod","outputs":[],"stateMutability":"nonpayable","type":"function"},{"inputs":[],"name":"startVoting","outputs":[],"stateMutability":"nonpayable","type":"function"},{"inputs":[{"internalType":"string","name":"position","type":"string"},{"internalType":"uint256","name":"candidateId","type":"uint256"}],"name":"vote","outputs":[],"stateMutability":"nonpayable","type":"function"},{"inputs":[],"name":"votingEndTime","outputs":[{"internalType":"uint256","name":"","type":"uint256"}],"stateMutability":"view","type":"function"},{"inputs":[],"name":"votingEnded","outputs":[{"internalType":"bool","name":"","type":"bool"}],"stateMutability":"view","type":"function"},{"inputs":[],"name":"votingStartTime","outputs":[{"internalType":"uint256","name":"","type":"uint256"}],"stateMutability":"view","type":"function"},{"inputs":[],"name":"votingStarted","outputs":[{"internalType":"bool","name":"","type":"bool"}],"stateMutability":"view","type":"function"}],"evm":{"bytecode":{"linkReferences":{},"object":"60a060405234801561001057600080fd5b503373ffffffffffffffffffffffffffffffffffffffff1660808173ffffffffffffffffffffffffffffffffffffffff16815250506080516129a3610083600039600081816103450152818161072b01528181610e4501528181610e6b01528181610ea201526113a301526129a36000f3fe608060405234801561001057600080fd5b506004361061010b5760003560e01c8063893d20e8116100a2578063a638580311610071578063a638580314610286578063ae179ebc146102a2578063c3403ddf146102d2578063c6847060146102dc578063e0bec11f1461030c5761010b565b8063893d20e8146102105780638da5cb5b1461022e5780639d5a05291461024c578063a15a36c71461026a5761010b565b806326541b56116100de57806326541b56146101875780634a61fc1e146101a357806380275860146101d457806383d948b7146101f25761010b565b80631ea736e0146101105780631ec6b60a1461012e5780631eccd22f146101385780632019a60814610169575b600080fd5b61011861033d565b6040516101259190611a0e565b60405180910390f35b610136610343565b005b610152600480360381019061014d9190611ac4565b61057c565b604051610160929190611bbd565b60405180910390f35b610171610723565b60405161017e9190611a0e565b60405180910390f35b6101a1600480360381019061019c9190611bed565b610729565b005b6101bd60048036038101906101b89190611ca4565b610a41565b6040516101cb929190611ddd565b60405180910390f35b6101dc610cd4565b6040516101e99190611e0d565b60405180910390f35b6101fa610e30565b6040516102079190611e4a565b60405180910390f35b610218610e41565b6040516102259190611ea6565b60405180910390f35b610236610e69565b6040516102439190611ea6565b60405180910390f35b610254610e8d565b6040516102619190611e4a565b60405180910390f35b610284600480360381019061027f9190611ec1565b610ea0565b005b6102a0600480360381019061029b9190611ac4565b610fd0565b005b6102bc60048036038101906102b79190611f01565b611303565b6040516102c99190611a0e565b60405180910390f35b6102da6113a1565b005b6102f660048036038101906102f19190611f7a565b61164e565b6040516103039190611e4a565b60405180910390f35b61032660048036038101906103219190611f01565b611737565b604051610334929190611ddd565b60405180910390f35b60025481565b7f000000000000000000000000000000000000000000000000000000000000000073ffffffffffffffffffffffffffffffffffffffff163373ffffffffffffffffffffffffffffffffffffffff16146103d1576040517f08c379a00000000000000000000000000000000000000000000000000000000081526004016103c890612026565b60405180910390fd5b600060048054905011610419576040517f08c379a000000000000000000000000000000000000000000000000000000000815260040161041090612092565b60405180910390fd5b60005b6004805490508110156104b45760026003600060048481548110610443576104426120b2565b5b906000526020600020015481526020019081526020016000206001015410156104a1576040517f08c379a000000000000000000000000000000000000000000000000000000000815260040161049890612153565b60405180910390fd5b80806104ac906121a2565b91505061041c565b5060006001541180156104ca5750600154600254115b610509576040517f08c379a000000000000000000000000000000000000000000000000000000000815260040161050090612237565b60405180910390fd5b60016000806101000a81548160ff02191690831515021790555060008060016101000a81548160ff0219169083151502179055507ff8c022056754dbacca05aff710dc315a2fa7699ae9309fda403cd1e55c11d40f600154600254604051610572929190612257565b60405180910390a1565b60606000806105ce86868080601f016020809104026020016040519081016040528093929190818152602001838380828437600081840152601f19601f820116905080830192505050505050506117cc565b90506000816040516020016105e391906122bc565b6040516020818303038152906040528051906020012090506000600360008381526020019081526020016000209050600086118015610626575080600101548611155b610665576040517f08c379a000000000000000000000000000000000000000000000000000000000815260040161065c9061231f565b60405180910390fd5b600081600201600088815260200190815260200160002090508060010181600201548180546106939061236e565b80601f01602080910402602001604051908101604052809291908181526020018280546106bf9061236e565b801561070c5780601f106106e15761010080835404028352916020019161070c565b820191906000526020600020905b8154815290600101906020018083116106ef57829003601f168201915b505050505091509550955050505050935093915050565b60015481565b7f000000000000000000000000000000000000000000000000000000000000000073ffffffffffffffffffffffffffffffffffffffff163373ffffffffffffffffffffffffffffffffffffffff16146107b7576040517f08c379a00000000000000000000000000000000000000000000000000000000081526004016107ae90612026565b60405180910390fd5b60008054906101000a900460ff1615610805576040517f08c379a00000000000000000000000000000000000000000000000000000000081526004016107fc90612412565b60405180910390fd5b600061085485858080601f016020809104026020016040519081016040528093929190818152602001838380828437600081840152601f19601f820116905080830192505050505050506117cc565b905060008160405160200161086991906122bc565b60405160208183030381529060405280519060200120905060006003600083815260200190815260200160002060010154141561091357600481908060018154018082558091505060019003906000526020600020016000909190919091505585856003600084815260200190815260200160002060000191906108ee9291906118cc565b5085856005600084815260200190815260200160002091906109119291906118cc565b505b600060036000838152602001908152602001600020905080600101600081548092919061093f906121a2565b919050555060405180606001604052808260010154815260200186868080601f016020809104026020016040519081016040528093929190818152602001838380828437600081840152601f19601f8201169050808301925050505050505081526020016000815250816002016000836001015481526020019081526020016000206000820151816000015560208201518160010190805190602001906109e7929190611952565b50604082015181600201559050507fdbbc48772584850c2086f66c22a3654c9e46524ff539fd9d72198d91cb7c13c0878783600101548888604051610a3095949392919061246e565b60405180910390a150505050505050565b606060008060019054906101000a900460ff16610a93576040517f08c379a0000000000000000000000000000000000000000000000000000000008152600401610a8a90612503565b60405180910390fd5b6000600360008581526020019081526020016000209050600080600190505b82600101548111610b0c5781836002016000838152602001908152602001600020600201541115610af9578260020160008281526020019081526020016000206002015491505b8080610b04906121a2565b915050610ab2565b50600080600190505b83600101548111610b625782846002016000838152602001908152602001600020600201541415610b4f578180610b4b906121a2565b9250505b8080610b5a906121a2565b915050610b15565b508067ffffffffffffffff811115610b7d57610b7c612523565b5b604051908082528060200260200182016040528015610bb057816020015b6060815260200190600190039081610b9b5790505b509450600080600190505b84600101548111610cc75783856002016000838152602001908152602001600020600201541415610cb4578460020160008281526020019081526020016000206001018054610c099061236e565b80601f0160208091040260200160405190810160405280929190818152602001828054610c359061236e565b8015610c825780601f10610c5757610100808354040283529160200191610c82565b820191906000526020600020905b815481529060010190602001808311610c6557829003601f168201915b5050505050878381518110610c9a57610c996120b2565b5b60200260200101819052508180610cb0906121a2565b9250505b8080610cbf906121a2565b915050610bbb565b5082945050505050915091565b6060600060048054905067ffffffffffffffff811115610cf757610cf6612523565b5b604051908082528060200260200182016040528015610d2a57816020015b6060815260200190600190039081610d155790505b50905060005b600480549050811015610e28576005600060048381548110610d5557610d546120b2565b5b906000526020600020015481526020019081526020016000208054610d799061236e565b80601f0160208091040260200160405190810160405280929190818152602001828054610da59061236e565b8015610df25780601f10610dc757610100808354040283529160200191610df2565b820191906000526020600020905b815481529060010190602001808311610dd557829003601f168201915b5050505050828281518110610e0a57610e096120b2565b5b60200260200101819052508080610e20906121a2565b915050610d30565b508091505090565b60008054906101000a900460ff1681565b60007f0000000000000000000000000000000000000000000000000000000000000000905090565b7f000000000000000000000000000000000000000000000000000000000000000081565b600060019054906101000a900460ff1681565b7f000000000000000000000000000000000000000000000000000000000000000073ffffffffffffffffffffffffffffffffffffffff163373ffffffffffffffffffffffffffffffffffffffff1614610f2e576040517f08c379a0000000000000000000000000000000000000000000000000000000008152600401610f2590612026565b60405180910390fd5b60008054906101000a900460ff1615610f7c576040517f08c379a0000000000000000000000000000000000000000000000000000000008152600401610f739061259e565b60405180910390fd5b808210610fbe576040517f08c379a0000000000000000000000000000000000000000000000000000000008152600401610fb59061260a565b60405180910390fd5b81600181905550806002819055505050565b60008054906101000a900460ff168015610ff75750600060019054906101000a900460ff16155b611036576040517f08c379a000000000000000000000000000000000000000000000000000000000815260040161102d90612676565b60405180910390fd5b60015442101561107b576040517f08c379a0000000000000000000000000000000000000000000000000000000008152600401611072906126e2565b60405180910390fd5b6002544211156110c0576040517f08c379a00000000000000000000000000000000000000000000000000000000081526004016110b79061274e565b60405180910390fd5b600061110f84848080601f016020809104026020016040519081016040528093929190818152602001838380828437600081840152601f19601f820116905080830192505050505050506117cc565b905060008160405160200161112491906122bc565b6040516020818303038152906040528051906020012090506000600660003373ffffffffffffffffffffffffffffffffffffffff1673ffffffffffffffffffffffffffffffffffffffff168152602001908152602001600020905080600001600083815260200190815260200160002060009054906101000a900460ff16156111e2576040517f08c379a00000000000000000000000000000000000000000000000000000000081526004016111d9906127ba565b60405180910390fd5b600060036000848152602001908152602001600020905060008511801561120d575080600101548511155b61124c576040517f08c379a000000000000000000000000000000000000000000000000000000000815260040161124390612826565b60405180910390fd5b8060020160008681526020019081526020016000206002016000815480929190611275906121a2565b9190505550600182600001600085815260200190815260200160002060006101000a81548160ff0219169083151502179055503373ffffffffffffffffffffffffffffffffffffffff167f35b4034b2bbe10bb07b21969c986794a6276a531bb155886a9f883bb5c9dc8e88888886040516112f293929190612846565b60405180910390a250505050505050565b60008061135384848080601f016020809104026020016040519081016040528093929190818152602001838380828437600081840152601f19601f820116905080830192505050505050506117cc565b905060008160405160200161136891906122bc565b60405160208183030381529060405280519060200120905060036000828152602001908152602001600020600101549250505092915050565b7f000000000000000000000000000000000000000000000000000000000000000073ffffffffffffffffffffffffffffffffffffffff163373ffffffffffffffffffffffffffffffffffffffff161461142f576040517f08c379a000000000000000000000000000000000000000000000000000000000815260040161142690612026565b60405180910390fd5b60008054906101000a900460ff1680156114565750600060019054906101000a900460ff16155b611495576040517f08c379a000000000000000000000000000000000000000000000000000000000815260040161148c906128c4565b60405180910390fd5b6001600060016101000a81548160ff0219169083151502179055507f7a19ed057db79e3c2fa0b97a54b43bef4fce74b31bb6c01af514b9a18a7f70ab60405160405180910390a160005b60048054905081101561164b57600060048281548110611502576115016120b2565b5b9060005260206000200154905060008061151b83610a41565b91509150600060056000858152602001908152602001600020805461153f9061236e565b80601f016020809104026020016040519081016040528092919081815260200182805461156b9061236e565b80156115b85780601f1061158d576101008083540402835291602001916115b8565b820191906000526020600020905b81548152906001019060200180831161159b57829003601f168201915b5050505050905060005b8351811015611633577f1e43f1bd0826319650f82fe661065b838421080d6e0c25e83fd23a67098e189982858381518110611600576115ff6120b2565b5b602002602001015185604051611618939291906128e4565b60405180910390a1808061162b906121a2565b9150506115c2565b50505050508080611643906121a2565b9150506114df565b50565b60008061169e84848080601f016020809104026020016040519081016040528093929190818152602001838380828437600081840152601f19601f820116905080830192505050505050506117cc565b90506000816040516020016116b391906122bc565b604051602081830303815290604052805190602001209050600660008773ffffffffffffffffffffffffffffffffffffffff1673ffffffffffffffffffffffffffffffffffffffff168152602001908152602001600020600001600082815260200190815260200160002060009054906101000a900460ff16925050509392505050565b606060008061178985858080601f016020809104026020016040519081016040528093929190818152602001838380828437600081840152601f19601f820116905080830192505050505050506117cc565b905060008160405160200161179e91906122bc565b6040516020818303038152906040528051906020012090506117bf81610a41565b9350935050509250929050565b6060600082905060005b81518110156118c25760418282815181106117f4576117f36120b2565b5b602001015160f81c60f81b60f81c60ff16101580156118375750605a828281518110611823576118226120b2565b5b602001015160f81c60f81b60f81c60ff1611155b156118af576020828281518110611851576118506120b2565b5b602001015160f81c60f81b60f81c6118699190612936565b60f81b82828151811061187f5761187e6120b2565b5b60200101907effffffffffffffffffffffffffffffffffffffffffffffffffffffffffffff1916908160001a9053505b80806118ba906121a2565b9150506117d6565b5080915050919050565b8280546118d89061236e565b90600052602060002090601f0160209004810192826118fa5760008555611941565b82601f1061191357803560ff1916838001178555611941565b82800160010185558215611941579182015b82811115611940578235825591602001919060010190611925565b5b50905061194e91906119d8565b5090565b82805461195e9061236e565b90600052602060002090601f01602090048101928261198057600085556119c7565b82601f1061199957805160ff19168380011785556119c7565b828001600101855582156119c7579182015b828111156119c65782518255916020019190600101906119ab565b5b5090506119d491906119d8565b5090565b5b808211156119f15760008160009055506001016119d9565b5090565b6000819050919050565b611a08816119f5565b82525050565b6000602082019050611a2360008301846119ff565b92915050565b600080fd5b600080fd5b600080fd5b600080fd5b600080fd5b60008083601f840112611a5857611a57611a33565b5b8235905067ffffffffffffffff811115611a7557611a74611a38565b5b602083019150836001820283011115611a9157611a90611a3d565b5b9250929050565b611aa1816119f5565b8114611aac57600080fd5b50565b600081359050611abe81611a98565b92915050565b600080600060408486031215611add57611adc611a29565b5b600084013567ffffffffffffffff811115611afb57611afa611a2e565b5b611b0786828701611a42565b93509350506020611b1a86828701611aaf565b9150509250925092565b600081519050919050565b600082825260208201905092915050565b60005b83811015611b5e578082015181840152602081019050611b43565b83811115611b6d576000848401525b50505050565b6000601f19601f8301169050919050565b6000611b8f82611b24565b611b998185611b2f565b9350611ba9818560208601611b40565b611bb281611b73565b840191505092915050565b60006040820190508181036000830152611bd78185611b84565b9050611be660208301846119ff565b9392505050565b60008060008060408587031215611c0757611c06611a29565b5b600085013567ffffffffffffffff811115611c2557611c24611a2e565b5b611c3187828801611a42565b9450945050602085013567ffffffffffffffff811115611c5457611c53611a2e565b5b611c6087828801611a42565b925092505092959194509250565b6000819050919050565b611c8181611c6e565b8114611c8c57600080fd5b50565b600081359050611c9e81611c78565b92915050565b600060208284031215611cba57611cb9611a29565b5b6000611cc884828501611c8f565b91505092915050565b600081519050919050565b600082825260208201905092915050565b6000819050602082019050919050565b600082825260208201905092915050565b6000611d1982611b24565b611d238185611cfd565b9350611d33818560208601611b40565b611d3c81611b73565b840191505092915050565b6000611d538383611d0e565b905092915050565b6000602082019050919050565b6000611d7382611cd1565b611d7d8185611cdc565b935083602082028501611d8f85611ced565b8060005b85811015611dcb5784840389528151611dac8582611d47565b9450611db783611d5b565b925060208a01995050600181019050611d93565b50829750879550505050505092915050565b60006040820190508181036000830152611df78185611d68565b9050611e0660208301846119ff565b9392505050565b60006020820190508181036000830152611e278184611d68565b905092915050565b60008115159050919050565b611e4481611e2f565b82525050565b6000602082019050611e5f6000830184611e3b565b92915050565b600073ffffffffffffffffffffffffffffffffffffffff82169050919050565b6000611e9082611e65565b9050919050565b611ea081611e85565b82525050565b6000602082019050611ebb6000830184611e97565b92915050565b60008060408385031215611ed857611ed7611a29565b5b6000611ee685828601611aaf565b9250506020611ef785828601611aaf565b9150509250929050565b60008060208385031215611f1857611f17611a29565b5b600083013567ffffffffffffffff811115611f3657611f35611a2e565b5b611f4285828601611a42565b92509250509250929050565b611f5781611e85565b8114611f6257600080fd5b50565b600081359050611f7481611f4e565b92915050565b600080600060408486031215611f9357611f92611a29565b5b6000611fa186828701611f65565b935050602084013567ffffffffffffffff811115611fc257611fc1611a2e565b5b611fce86828701611a42565b92509250509250925092565b7f4f6e6c79206f776e65722063616e20706572666f726d20746869730000000000600082015250565b6000612010601b83611b2f565b915061201b82611fda565b602082019050919050565b6000602082019050818103600083015261203f81612003565b9050919050565b7f4e6f20706f736974696f6e7320746f20766f7465206f6e000000000000000000600082015250565b600061207c601783611b2f565b915061208782612046565b602082019050919050565b600060208201905081810360008301526120ab8161206f565b9050919050565b7f4e487b7100000000000000000000000000000000000000000000000000000000600052603260045260246000fd5b7f4561636820706f736974696f6e206d7573742068617665206174206c6561737460008201527f20322063616e6469646174657300000000000000000000000000000000000000602082015250565b600061213d602d83611b2f565b9150612148826120e1565b604082019050919050565b6000602082019050818103600083015261216c81612130565b9050919050565b7f4e487b7100000000000000000000000000000000000000000000000000000000600052601160045260246000fd5b60006121ad826119f5565b91507fffffffffffffffffffffffffffffffffffffffffffffffffffffffffffffffff8214156121e0576121df612173565b5b600182019050919050565b7f566f74696e6720706572696f64206e6f74207365740000000000000000000000600082015250565b6000612221601583611b2f565b915061222c826121eb565b602082019050919050565b6000602082019050818103600083015261225081612214565b9050919050565b600060408201905061226c60008301856119ff565b61227960208301846119ff565b9392505050565b600081905092915050565b600061229682611b24565b6122a08185612280565b93506122b0818560208601611b40565b80840191505092915050565b60006122c8828461228b565b915081905092915050565b7f496e76616c69642063616e646964617465204944000000000000000000000000600082015250565b6000612309601483611b2f565b9150612314826122d3565b602082019050919050565b60006020820190508181036000830152612338816122fc565b9050919050565b7f4e487b7100000000000000000000000000000000000000000000000000000000600052602260045260246000fd5b6000600282049050600182168061238657607f821691505b6020821081141561239a5761239961233f565b5b50919050565b7f43616e6e6f74206164642063616e6469646174657320616674657220766f746960008201527f6e67207374617274730000000000000000000000000000000000000000000000602082015250565b60006123fc602983611b2f565b9150612407826123a0565b604082019050919050565b6000602082019050818103600083015261242b816123ef565b9050919050565b82818337600083830152505050565b600061244d8385611b2f565b935061245a838584612432565b61246383611b73565b840190509392505050565b60006060820190508181036000830152612489818789612441565b905061249860208301866119ff565b81810360408301526124ab818486612441565b90509695505050505050565b7f566f74696e67206e6f7420656e64656420796574000000000000000000000000600082015250565b60006124ed601483611b2f565b91506124f8826124b7565b602082019050919050565b6000602082019050818103600083015261251c816124e0565b9050919050565b7f4e487b7100000000000000000000000000000000000000000000000000000000600052604160045260246000fd5b7f566f74696e6720616c7265616479207374617274656400000000000000000000600082015250565b6000612588601683611b2f565b915061259382612552565b602082019050919050565b600060208201905081810360008301526125b78161257b565b9050919050565b7f496e76616c696420766f74696e6720706572696f640000000000000000000000600082015250565b60006125f4601583611b2f565b91506125ff826125be565b602082019050919050565b60006020820190508181036000830152612623816125e7565b9050919050565b7f566f74696e67206973206e6f7420616374697665000000000000000000000000600082015250565b6000612660601483611b2f565b915061266b8261262a565b602082019050919050565b6000602082019050818103600083015261268f81612653565b9050919050565b7f566f74696e67206861736e277420737461727465642079657400000000000000600082015250565b60006126cc601983611b2f565b91506126d782612696565b602082019050919050565b600060208201905081810360008301526126fb816126bf565b9050919050565b7f566f74696e672068617320656e64656400000000000000000000000000000000600082015250565b6000612738601083611b2f565b915061274382612702565b602082019050919050565b600060208201905081810360008301526127678161272b565b9050919050565b7f416c726561647920766f74656420666f72207468697320706f736974696f6e00600082015250565b60006127a4601f83611b2f565b91506127af8261276e565b602082019050919050565b600060208201905081810360008301526127d381612797565b9050919050565b7f496e76616c69642063616e646964617465000000000000000000000000000000600082015250565b6000612810601183611b2f565b915061281b826127da565b602082019050919050565b6000602082019050818103600083015261283f81612803565b9050919050565b60006040820190508181036000830152612861818587612441565b905061287060208301846119ff565b949350505050565b7f566f74696e67206e6f7420616374697665000000000000000000000000000000600082015250565b60006128ae601183611b2f565b91506128b982612878565b602082019050919050565b600060208201905081810360008301526128dd816128a1565b9050919050565b600060608201905081810360008301526128fe8186611b84565b905081810360208301526129128185611b84565b905061292160408301846119ff565b949350505050565b600060ff82169050919050565b600061294182612929565b915061294c83612929565b92508260ff0382111561296257612961612173565b5b82820190509291505056fea264697066735822122052c76f3a3737df05485e28241a695b2332d013f8f588f77910694a737c3932ea64736f6c63430008090033","opcodes":"PUSH1 0xA0 PUSH1 0x40 MSTORE CALLVALUE DUP1 ISZERO PUSH2 0x10 JUMPI PUSH1 0x0 DUP1 REVERT JUMPDEST POP CALLER PUSH20 0xFFFFFFFFFFFFFFFFFFFFFFFFFFFFFFFFFFFFFFFF AND PUSH1 0x80 DUP2 PUSH20 0xFFFFFFFFFFFFFFFFFFFFFFFFFFFFFFFFFFFFFFFF AND DUP2 MSTORE POP POP PUSH1 0x80 MLOAD PUSH2 0x29A3 PUSH2 0x83 PUSH1 0x0 CODECOPY PUSH1 0x0 DUP2 DUP2 PUSH2 0x345 ADD MSTORE DUP2 DUP2 PUSH2 0x72B ADD MSTORE DUP2 DUP2 PUSH2 0xE45 ADD MSTORE DUP2 DUP2 PUSH2 0xE6B ADD MSTORE DUP2 DUP2 PUSH2 0xEA2 ADD MSTORE PUSH2 0x13A3 ADD MSTORE PUSH2 0x29A3 PUSH1 0x0 RETURN INVALID PUSH1 0x80 PUSH1 0x40 MSTORE CALLVALUE DUP1 ISZERO PUSH2 0x10 JUMPI PUSH1 0x0 DUP1 REVERT JUMPDEST POP PUSH1 0x4 CALLDATASIZE LT PUSH2 0x10B JUMPI PUSH1 0x0 CALLDATALOAD PUSH1 0xE0 SHR DUP1 PUSH4 0x893D20E8 GT PUSH2 0xA2 JUMPI DUP1 PUSH4 0xA6385803 GT PUSH2 0x71 JUMPI DUP1 PUSH4 0xA6385803 EQ PUSH2 0x286 JUMPI DUP1 PUSH4 0xAE179EBC EQ PUSH2 0x2A2 JUMPI DUP1 PUSH4 0xC3403DDF EQ PUSH2 0x2D2 JUMPI DUP1 PUSH4 0xC6847060 EQ PUSH2 0x2DC JUMPI DUP1 PUSH4 0xE0BEC11F EQ PUSH2 0x30C JUMPI PUSH2 0x10B JUMP JUMPDEST DUP1 PUSH4 0x893D20E8 EQ PUSH2 0x210 JUMPI DUP1 PUSH4 0x8DA5CB5B EQ PUSH2 0x22E JUMPI DUP1 PUSH4 0x9D5A0529 EQ PUSH2 0x24C JUMPI DUP1 PUSH4 0xA15A36C7 EQ PUSH2 0x26A JUMPI PUSH2 0x10B JUMP JUMPDEST DUP1 PUSH4 0x26541B56 GT PUSH2 0xDE JUMPI DUP1 PUSH4 0x26541B56 EQ PUSH2 0x187 JUMPI DUP1 PUSH4 0x4A61FC1E EQ PUSH2 0x1A3 JUMPI DUP1 PUSH4 0x80275860 EQ PUSH2 0x1D4 JUMPI DUP1 PUSH4 0x83D948B7 EQ PUSH2 0x1F2 JUMPI PUSH2 0x10B JUMP JUMPDEST DUP1 PUSH4 0x1EA736E0 EQ PUSH2 0x110 JUMPI DUP1 PUSH4 0x1EC6B60A EQ PUSH2 0x12E JUMPI DUP1 PUSH4 0x1ECCD22F EQ PUSH2 0x138 JUMPI DUP1 PUSH4 0x2019A608 EQ PUSH2 0x169 JUMPI JUMPDEST PUSH1 0x0 DUP1 REVERT JUMPDEST PUSH2 0x118 PUSH2 0x33D JUMP JUMPDEST PUSH1 0x40 MLOAD PUSH2 0x125 SWAP2 SWAP1 PUSH2 0x1A0E JUMP JUMPDEST PUSH1 0x40 MLOAD DUP1 SWAP2 SUB SWAP1 RETURN JUMPDEST PUSH2 0x136 PUSH2 0x343 JUMP JUMPDEST STOP JUMPDEST PUSH2 0x152 PUSH1 0x4 DUP1 CALLDATASIZE SUB DUP2 ADD SWAP1 PUSH2 0x14D SWAP2 SWAP1 PUSH2 0x1AC4 JUMP JUMPDEST PUSH2 0x57C JUMP JUMPDEST PUSH1 0x40 MLOAD PUSH2 0x160 SWAP3 SWAP2 SWAP1 PUSH2 0x1BBD JUMP JUMPDEST PUSH1 0x40 MLOAD DUP1 SWAP2 SUB SWAP1 RETURN JUMPDEST PUSH2 0x171 PUSH2 0x723 JUMP JUMPDEST PUSH1 0x40 MLOAD PUSH2 0x17E SWAP2 SWAP1 PUSH2 0x1A0E JUMP JUMPDEST PUSH1 0x40 MLOAD DUP1 SWAP2 SUB SWAP1 RETURN JUMPDEST PUSH2 0x1A1 PUSH1 0x4 DUP1 CALLDATASIZE SUB DUP2 ADD SWAP1 PUSH2 0x19C SWAP2 SWAP1 PUSH2 0x1BED JUMP JUMPDEST PUSH2 0x729 JUMP JUMPDEST STOP JUMPDEST PUSH2 0x1BD PUSH1 0x4 DUP1 CALLDATASIZE SUB DUP2 ADD SWAP1 PUSH2 0x1B8 SWAP2 SWAP1 PUSH2 0x1CA4 JUMP JUMPDEST PUSH2 0xA41 JUMP JUMPDEST PUSH1 0x40 MLOAD PUSH2 0x1CB SWAP3 SWAP2 SWAP1 PUSH2 0x1DDD JUMP JUMPDEST PUSH1 0x40 MLOAD DUP1 SWAP2 SUB SWAP1 RETURN JUMPDEST PUSH2 0x1DC PUSH2 0xCD4 JUMP JUMPDEST PUSH1 0x40 MLOAD PUSH2 0x1E9 SWAP2 SWAP1 PUSH2 0x1E0D JUMP JUMPDEST PUSH1 0x40 MLOAD DUP1 SWAP2 SUB SWAP1 RETURN JUMPDEST PUSH2 0x1FA PUSH2 0xE30 JUMP JUMPDEST PUSH1 0x40 MLOAD PUSH2 0x207 SWAP2 SWAP1 PUSH2 0x1E4A JUMP JUMPDEST PUSH1 0x40 MLOAD DUP1 SWAP2 SUB SWAP1 RETURN JUMPDEST PUSH2 0x218 PUSH2 0xE41 JUMP JUMPDEST PUSH1 0x40 MLOAD PUSH2 0x225 SWAP2 SWAP1 PUSH2 0x1EA6 JUMP JUMPDEST PUSH1 0x40 MLOAD DUP1 SWAP2 SUB SWAP1 RETURN JUMPDEST PUSH2 0x236 PUSH2 0xE69 JUMP JUMPDEST PUSH1 0x40 MLOAD PUSH2 0x243 SWAP2 SWAP1 PUSH2 0x1EA6 JUMP JUMPDEST PUSH1 0x40 MLOAD DUP1 SWAP2 SUB SWAP1 RETURN JUMPDEST PUSH2 0x254 PUSH2 0xE8D JUMP JUMPDEST PUSH1 0x40 MLOAD PUSH2 0x261 SWAP2 SWAP1 PUSH2 0x1E4A JUMP JUMPDEST PUSH1 0x40 MLOAD DUP1 SWAP2 SUB SWAP1 RETURN JUMPDEST PUSH2 0x284 PUSH1 0x4 DUP1 CALLDATASIZE SUB DUP2 ADD SWAP1 PUSH2 0x27F SWAP2 SWAP1 PUSH2 0x1EC1 JUMP JUMPDEST PUSH2 0xEA0 JUMP JUMPDEST STOP JUMPDEST PUSH2 0x2A0 PUSH1 0x4 DUP1 CALLDATASIZE SUB DUP2 ADD SWAP1 PUSH2 0x29B SWAP2 SWAP1 PUSH2 0x1AC4 JUMP JUMPDEST PUSH2 0xFD0 JUMP JUMPDEST STOP JUMPDEST PUSH2 0x2BC PUSH1 0x4 DUP1 CALLDATASIZE SUB DUP2 ADD SWAP1 PUSH2 0x2B7 SWAP2 SWAP1 PUSH2 0x1F01 JUMP JUMPDEST PUSH2 0x1303 JUMP JUMPDEST PUSH1 0x40 MLOAD PUSH2 0x2C9 SWAP2 SWAP1 PUSH2 0x1A0E JUMP JUMPDEST PUSH1 0x40 MLOAD DUP1 SWAP2 SUB SWAP1 RETURN JUMPDEST PUSH2 0x2DA PUSH2 0x13A1 JUMP JUMPDEST STOP JUMPDEST PUSH2 0x2F6 PUSH1 0x4 DUP1 CALLDATASIZE SUB DUP2 ADD SWAP1 PUSH2 0x2F1 SWAP2 SWAP1 PUSH2 0x1F7A JUMP JUMPDEST PUSH2 0x164E JUMP JUMPDEST PUSH1 0x40 MLOAD PUSH2 0x303 SWAP2 SWAP1 PUSH2 0x1E4A JUMP JUMPDEST PUSH1 0x40 MLOAD DUP1 SWAP2 SUB SWAP1 RETURN JUMPDEST PUSH2 0x326 PUSH1 0x4 DUP1 CALLDATASIZE SUB DUP2 ADD SWAP1 PUSH2 0x321 SWAP2 SWAP1 PUSH2 0x1F01 JUMP JUMPDEST PUSH2 0x1737 JUMP JUMPDEST PUSH1 0x40 MLOAD PUSH2 0x334 SWAP3 SWAP2 SWAP1 PUSH2 0x1DDD JUMP JUMPDEST PUSH1 0x40 MLOAD DUP1 SWAP2 SUB SWAP1 RETURN JUMPDEST PUSH1 0x2 SLOAD DUP2 JUMP JUMPDEST PUSH32 0x0 PUSH20 0xFFFFFFFFFFFFFFFFFFFFFFFFFFFFFFFFFFFFFFFF AND CALLER PUSH20 0xFFFFFFFFFFFFFFFFFFFFFFFFFFFFFFFFFFFFFFFF AND EQ PUSH2 0x3D1 JUMPI PUSH1 0x40 MLOAD PUSH32 0x8C379A000000000000000000000000000000000000000000000000000000000 DUP2 MSTORE PUSH1 0x4 ADD PUSH2 0x3C8 SWAP1 PUSH2 0x2026 JUMP JUMPDEST PUSH1 0x40 MLOAD DUP1 SWAP2 SUB SWAP1 REVERT JUMPDEST PUSH1 0x0 PUSH1 0x4 DUP1 SLOAD SWAP1 POP GT PUSH2 0x419 JUMPI PUSH1 0x40 MLOAD PUSH32 0x8C379A000000000000000000000000000000000000000000000000000000000 DUP2 MSTORE PUSH1 0x4 ADD PUSH2 0x410 SWAP1 PUSH2 0x2092 JUMP JUMPDEST PUSH1 0x40 MLOAD DUP1 SWAP2 SUB SWAP1 REVERT JUMPDEST PUSH1 0x0 JUMPDEST PUSH1 0x4 DUP1 SLOAD SWAP1 POP DUP2 LT ISZERO PUSH2 0x4B4 JUMPI PUSH1 0x2 PUSH1 0x3 PUSH1 0x0 PUSH1 0x4 DUP5 DUP2 SLOAD DUP2 LT PUSH2 0x443 JUMPI PUSH2 0x442 PUSH2 0x20B2 JUMP JUMPDEST JUMPDEST SWAP1 PUSH1 0x0 MSTORE PUSH1 0x20 PUSH1 0x0 KECCAK256 ADD SLOAD DUP2 MSTORE PUSH1 0x20 ADD SWAP1 DUP2 MSTORE PUSH1 0x20 ADD PUSH1 0x0 KECCAK256 PUSH1 0x1 ADD SLOAD LT ISZERO PUSH2 0x4A1 JUMPI PUSH1 0x40 MLOAD PUSH32 0x8C379A000000000000000000000000000000000000000000000000000000000 DUP2 MSTORE PUSH1 0x4 ADD PUSH2 0x498 SWAP1 PUSH2 0x2153 JUMP JUMPDEST PUSH1 0x40 MLOAD DUP1 SWAP2 SUB SWAP1 REVERT JUMPDEST DUP1 DUP1 PUSH2 0x4AC SWAP1 PUSH2 0x21A2 JUMP JUMPDEST SWAP2 POP POP PUSH2 0x41C JUMP JUMPDEST POP PUSH1 0x0 PUSH1 0x1 SLOAD GT DUP1 ISZERO PUSH2 0x4CA JUMPI POP PUSH1 0x1 SLOAD PUSH1 0x2 SLOAD GT JUMPDEST PUSH2 0x509 JUMPI PUSH1 0x40 MLOAD PUSH32 0x8C379A000000000000000000000000000000000000000000000000000000000 DUP2 MSTORE PUSH1 0x4 ADD PUSH2 0x500 SWAP1 PUSH2 0x2237 JUMP JUMPDEST PUSH1 0x40 MLOAD DUP1 SWAP2 SUB SWAP1 REVERT JUMPDEST PUSH1 0x1 PUSH1 0x0 DUP1 PUSH2 0x100 EXP DUP2 SLOAD DUP2 PUSH1 0xFF MUL NOT AND SWAP1 DUP4 ISZERO ISZERO MUL OR SWAP1 SSTORE POP PUSH1 0x0 DUP1 PUSH1 0x1 PUSH2 0x100 EXP DUP2 SLOAD DUP2 PUSH1 0xFF MUL NOT AND SWAP1 DUP4 ISZERO ISZERO MUL OR SWAP1 SSTORE POP PUSH32 0xF8C022056754DBACCA05AFF710DC315A2FA7699AE9309FDA403CD1E55C11D40F PUSH1 0x1 SLOAD PUSH1 0x2 SLOAD PUSH1 0x40 MLOAD PUSH2 0x572 SWAP3 SWAP2 SWAP1 PUSH2 0x2257 JUMP JUMPDEST PUSH1 0x40 MLOAD DUP1 SWAP2 SUB SWAP1 LOG1 JUMP JUMPDEST PUSH1 0x60 PUSH1 0x0 DUP1 PUSH2 0x5CE DUP7 DUP7 DUP1 DUP1 PUSH1 0x1F ADD PUSH1 0x20 DUP1 SWAP2 DIV MUL PUSH1 0x20 ADD PUSH1 0x40 MLOAD SWAP1 DUP2 ADD PUSH1 0x40 MSTORE DUP1 SWAP4 SWAP3 SWAP2 SWAP1 DUP2 DUP2 MSTORE PUSH1 0x20 ADD DUP4 DUP4 DUP1 DUP3 DUP5 CALLDATACOPY PUSH1 0x0 DUP2 DUP5 ADD MSTORE PUSH1 0x1F NOT PUSH1 0x1F DUP3 ADD AND SWAP1 POP DUP1 DUP4 ADD SWAP3 POP POP POP POP POP POP POP PUSH2 0x17CC JUMP JUMPDEST SWAP1 POP PUSH1 0x0 DUP2 PUSH1 0x40 MLOAD PUSH1 0x20 ADD PUSH2 0x5E3 SWAP2 SWAP1 PUSH2 0x22BC JUMP JUMPDEST PUSH1 0x40 MLOAD PUSH1 0x20 DUP2 DUP4 SUB SUB DUP2 MSTORE SWAP1 PUSH1 0x40 MSTORE DUP1 MLOAD SWAP1 PUSH1 0x20 ADD KECCAK256 SWAP1 POP PUSH1 0x0 PUSH1 0x3 PUSH1 0x0 DUP4 DUP2 MSTORE PUSH1 0x20 ADD SWAP1 DUP2 MSTORE PUSH1 0x20 ADD PUSH1 0x0 KECCAK256 SWAP1 POP PUSH1 0x0 DUP7 GT DUP1 ISZERO PUSH2 0x626 JUMPI POP DUP1 PUSH1 0x1 ADD SLOAD DUP7 GT ISZERO JUMPDEST PUSH2 0x665 JUMPI PUSH1 0x40 MLOAD PUSH32 0x8C379A000000000000000000000000000000000000000000000000000000000 DUP2 MSTORE PUSH1 0x4 ADD PUSH2 0x65C SWAP1 PUSH2 0x231F JUMP JUMPDEST PUSH1 0x40 MLOAD DUP1 SWAP2 SUB SWAP1 REVERT JUMPDEST PUSH1 0x0 DUP2 PUSH1 0x2 ADD PUSH1 0x0 DUP9 DUP2 MSTORE PUSH1 0x20 ADD SWAP1 DUP2 MSTORE PUSH1 0x20 ADD PUSH1 0x0 KECCAK256 SWAP1 POP DUP1 PUSH1 0x1 ADD DUP2 PUSH1 0x2 ADD SLOAD DUP2 DUP1 SLOAD PUSH2 0x693 SWAP1 PUSH2 0x236E JUMP JUMPDEST DUP1 PUSH1 0x1F ADD PUSH1 0x20 DUP1 SWAP2 DIV MUL PUSH1 0x20 ADD PUSH1 0x40 MLOAD SWAP1 DUP2 ADD PUSH1 0x40 MSTORE DUP1 SWAP3 SWAP2 SWAP1 DUP2 DUP2 MSTORE PUSH1 0x20 ADD DUP3 DUP1 SLOAD PUSH2 0x6BF SWAP1 PUSH2 0x236E JUMP JUMPDEST DUP1 ISZERO PUSH2 0x70C JUMPI DUP1 PUSH1 0x1F LT PUSH2 0x6E1 JUMPI PUSH2 0x100 DUP1 DUP4 SLOAD DIV MUL DUP4 MSTORE SWAP2 PUSH1 0x20 ADD SWAP2 PUSH2 0x70C JUMP JUMPDEST DUP3 ADD SWAP2 SWAP1 PUSH1 0x0 MSTORE PUSH1 0x20 PUSH1 0x0 KECCAK256 SWAP1 JUMPDEST DUP2 SLOAD DUP2 MSTORE SWAP1 PUSH1 0x1 ADD SWAP1 PUSH1 0x20 ADD DUP1 DUP4 GT PUSH2 0x6EF JUMPI DUP3 SWAP1 SUB PUSH1 0x1F AND DUP3 ADD SWAP2 JUMPDEST POP POP POP POP POP SWAP2 POP SWAP6 POP SWAP6 POP POP POP POP POP SWAP4 POP SWAP4 SWAP2 POP POP JUMP JUMPDEST PUSH1 0x1 SLOAD DUP2 JUMP JUMPDEST PUSH32 0x0 PUSH20 0xFFFFFFFFFFFFFFFFFFFFFFFFFFFFFFFFFFFFFFFF AND CALLER PUSH20 0xFFFFFFFFFFFFFFFFFFFFFFFFFFFFFFFFFFFFFFFF AND EQ PUSH2 0x7B7 JUMPI PUSH1 0x40 MLOAD PUSH32 0x8C379A000000000000000000000000000000000000000000000000000000000 DUP2 MSTORE PUSH1 0x4 ADD PUSH2 0x7AE SWAP1 PUSH2 0x2026 JUMP JUMPDEST PUSH1 0x40 MLOAD DUP1 SWAP2 SUB SWAP1 REVERT JUMPDEST PUSH1 0x0 DUP1 SLOAD SWAP1 PUSH2 0x100 EXP SWAP1 DIV PUSH1 0xFF AND ISZERO PUSH2 0x805 JUMPI PUSH1 0x40 MLOAD PUSH32 0x8C379A000000000000000000000000000000000000000000000000000000000 DUP2 MSTORE PUSH1 0x4 ADD PUSH2 0x7FC SWAP1 PUSH2 0x2412 JUMP JUMPDEST PUSH1 0x40 MLOAD DUP1 SWAP2 SUB SWAP1 REVERT JUMPDEST PUSH1 0x0 PUSH2 0x854 DUP6 DUP6 DUP1 DUP1 PUSH1 0x1F ADD PUSH1 0x20 DUP1 SWAP2 DIV MUL PUSH1 0x20 ADD PUSH1 0x40 MLOAD SWAP1 DUP2 ADD PUSH1 0x40 MSTORE DUP1 SWAP4 SWAP3 SWAP2 SWAP1 DUP2 DUP2 MSTORE PUSH1 0x20 ADD DUP4 DUP4 DUP1 DUP3 DUP5 CALLDATACOPY PUSH1 0x0 DUP2 DUP5 ADD MSTORE PUSH1 0x1F NOT PUSH1 0x1F DUP3 ADD AND SWAP1 POP DUP1 DUP4 ADD SWAP3 POP POP POP POP POP POP POP PUSH2 0x17CC JUMP JUMPDEST SWAP1 POP PUSH1 0x0 DUP2 PUSH1 0x40 MLOAD PUSH1 0x20 ADD PUSH2 0x869 SWAP2 SWAP1 PUSH2 0x22BC JUMP JUMPDEST PUSH1 0x40 MLOAD PUSH1 0x20 DUP2 DUP4 SUB SUB DUP2 MSTORE SWAP1 PUSH1 0x40 MSTORE DUP1 MLOAD SWAP1 PUSH1 0x20 ADD KECCAK256 SWAP1 POP PUSH1 0x0 PUSH1 0x3 PUSH1 0x0 DUP4 DUP2 MSTORE PUSH1 0x20 ADD SWAP1 DUP2 MSTORE PUSH1 0x20 ADD PUSH1 0x0 KECCAK256 PUSH1 0x1 ADD SLOAD EQ ISZERO PUSH2 0x913 JUMPI PUSH1 0x4 DUP2 SWAP1 DUP1 PUSH1 0x1 DUP2 SLOAD ADD DUP1 DUP3 SSTORE DUP1 SWAP2 POP POP PUSH1 0x1 SWAP1 SUB SWAP1 PUSH1 0x0 MSTORE PUSH1 0x20 PUSH1 0x0 KECCAK256 ADD PUSH1 0x0 SWAP1 SWAP2 SWAP1 SWAP2 SWAP1 SWAP2 POP SSTORE DUP6 DUP6 PUSH1 0x3 PUSH1 0x0 DUP5 DUP2 MSTORE PUSH1 0x20 ADD SWAP1 DUP2 MSTORE PUSH1 0x20 ADD PUSH1 0x0 KECCAK256 PUSH1 0x0 ADD SWAP2 SWAP1 PUSH2 0x8EE SWAP3 SWAP2 SWAP1 PUSH2 0x18CC JUMP JUMPDEST POP DUP6 DUP6 PUSH1 0x5 PUSH1 0x0 DUP5 DUP2 MSTORE PUSH1 0x20 ADD SWAP1 DUP2 MSTORE PUSH1 0x20 ADD PUSH1 0x0 KECCAK256 SWAP2 SWAP1 PUSH2 0x911 SWAP3 SWAP2 SWAP1 PUSH2 0x18CC JUMP JUMPDEST POP JUMPDEST PUSH1 0x0 PUSH1 0x3 PUSH1 0x0 DUP4 DUP2 MSTORE PUSH1 0x20 ADD SWAP1 DUP2 MSTORE PUSH1 0x20 ADD PUSH1 0x0 KECCAK256 SWAP1 POP DUP1 PUSH1 0x1 ADD PUSH1 0x0 DUP2 SLOAD DUP1 SWAP3 SWAP2 SWAP1 PUSH2 0x93F SWAP1 PUSH2 0x21A2 JUMP JUMPDEST SWAP2 SWAP1 POP SSTORE POP PUSH1 0x40 MLOAD DUP1 PUSH1 0x60 ADD PUSH1 0x40 MSTORE DUP1 DUP3 PUSH1 0x1 ADD SLOAD DUP2 MSTORE PUSH1 0x20 ADD DUP7 DUP7 DUP1 DUP1 PUSH1 0x1F ADD PUSH1 0x20 DUP1 SWAP2 DIV MUL PUSH1 0x20 ADD PUSH1 0x40 MLOAD SWAP1 DUP2 ADD PUSH1 0x40 MSTORE DUP1 SWAP4 SWAP3 SWAP2 SWAP1 DUP2 DUP2 MSTORE PUSH1 0x20 ADD DUP4 DUP4 DUP1 DUP3 DUP5 CALLDATACOPY PUSH1 0x0 DUP2 DUP5 ADD MSTORE PUSH1 0x1F NOT PUSH1 0x1F DUP3 ADD AND SWAP1 POP DUP1 DUP4 ADD SWAP3 POP POP POP POP POP POP POP DUP2 MSTORE PUSH1 0x20 ADD PUSH1 0x0 DUP2 MSTORE POP DUP2 PUSH1 0x2 ADD PUSH1 0x0 DUP4 PUSH1 0x1 ADD SLOAD DUP2 MSTORE PUSH1 0x20 ADD SWAP1 DUP2 MSTORE PUSH1 0x20 ADD PUSH1 0x0 KECCAK256 PUSH1 0x0 DUP3 ADD MLOAD DUP2 PUSH1 0x0 ADD SSTORE PUSH1 0x20 DUP3 ADD MLOAD DUP2 PUSH1 0x1 ADD SWAP1 DUP1 MLOAD SWAP1 PUSH1 0x20 ADD SWAP1 PUSH2 0x9E7 SWAP3 SWAP2 SWAP1 PUSH2 0x1952 JUMP JUMPDEST POP PUSH1 0x40 DUP3 ADD MLOAD DUP2 PUSH1 0x2 ADD SSTORE SWAP1 POP POP PUSH32 0xDBBC48772584850C2086F66C22A3654C9E46524FF539FD9D72198D91CB7C13C0 DUP8 DUP8 DUP4 PUSH1 0x1 ADD SLOAD DUP9 DUP9 PUSH1 0x40 MLOAD PUSH2 0xA30 SWAP6 SWAP5 SWAP4 SWAP3 SWAP2 SWAP1 PUSH2 0x246E JUMP JUMPDEST PUSH1 0x40 MLOAD DUP1 SWAP2 SUB SWAP1 LOG1 POP POP POP POP POP POP POP JUMP JUMPDEST PUSH1 0x60 PUSH1 0x0 DUP1 PUSH1 0x1 SWAP1 SLOAD SWAP1 PUSH2 0x100 EXP SWAP1 DIV PUSH1 0xFF AND PUSH2 0xA93 JUMPI PUSH1 0x40 MLOAD PUSH32 0x8C379A000000000000000000000000000000000000000000000000000000000 DUP2 MSTORE PUSH1 0x4 ADD PUSH2 0xA8A SWAP1 PUSH2 0x2503 JUMP JUMPDEST PUSH1 0x40 MLOAD DUP1 SWAP2 SUB SWAP1 REVERT JUMPDEST PUSH1 0x0 PUSH1 0x3 PUSH1 0x0 DUP6 DUP2 MSTORE PUSH1 0x20 ADD SWAP1 DUP2 MSTORE PUSH1 0x20 ADD PUSH1 0x0 KECCAK256 SWAP1 POP PUSH1 0x0 DUP1 PUSH1 0x1 SWAP1 POP JUMPDEST DUP3 PUSH1 0x1 ADD SLOAD DUP2 GT PUSH2 0xB0C JUMPI DUP2 DUP4 PUSH1 0x2 ADD PUSH1 0x0 DUP4 DUP2 MSTORE PUSH1 0x20 ADD SWAP1 DUP2 MSTORE PUSH1 0x20 ADD PUSH1 0x0 KECCAK256 PUSH1 0x2 ADD SLOAD GT ISZERO PUSH2 0xAF9 JUMPI DUP3 PUSH1 0x2 ADD PUSH1 0x0 DUP3 DUP2 MSTORE PUSH1 0x20 ADD SWAP1 DUP2 MSTORE PUSH1 0x20 ADD PUSH1 0x0 KECCAK256 PUSH1 0x2 ADD SLOAD SWAP2 POP JUMPDEST DUP1 DUP1 PUSH2 0xB04 SWAP1 PUSH2 0x21A2 JUMP JUMPDEST SWAP2 POP POP PUSH2 0xAB2 JUMP JUMPDEST POP PUSH1 0x0 DUP1 PUSH1 0x1 SWAP1 POP JUMPDEST DUP4 PUSH1 0x1 ADD SLOAD DUP2 GT PUSH2 0xB62 JUMPI DUP3 DUP5 PUSH1 0x2 ADD PUSH1 0x0 DUP4 DUP2 MSTORE PUSH1 0x20 ADD SWAP1 DUP2 MSTORE PUSH1 0x20 ADD PUSH1 0x0 KECCAK256 PUSH1 0x2 ADD SLOAD EQ ISZERO PUSH2 0xB4F JUMPI DUP2 DUP1 PUSH2 0xB4B SWAP1 PUSH2 0x21A2 JUMP JUMPDEST SWAP3 POP POP JUMPDEST DUP1 DUP1 PUSH2 0xB5A SWAP1 PUSH2 0x21A2 JUMP JUMPDEST SWAP2 POP POP PUSH2 0xB15 JUMP JUMPDEST POP DUP1 PUSH8 0xFFFFFFFFFFFFFFFF DUP2 GT ISZERO PUSH2 0xB7D JUMPI PUSH2 0xB7C PUSH2 0x2523 JUMP JUMPDEST JUMPDEST PUSH1 0x40 MLOAD SWAP1 DUP1 DUP3 MSTORE DUP1 PUSH1 0x20 MUL PUSH1 0x20 ADD DUP3 ADD PUSH1 0x40 MSTORE DUP1 ISZERO PUSH2 0xBB0 JUMPI DUP2 PUSH1 0x20 ADD JUMPDEST PUSH1 0x60 DUP2 MSTORE PUSH1 0x20 ADD SWAP1 PUSH1 0x1 SWAP1 SUB SWAP1 DUP2 PUSH2 0xB9B JUMPI SWAP1 POP JUMPDEST POP SWAP5 POP PUSH1 0x0 DUP1 PUSH1 0x1 SWAP1 POP JUMPDEST DUP5 PUSH1 0x1 ADD SLOAD DUP2 GT PUSH2 0xCC7 JUMPI DUP4 DUP6 PUSH1 0x2 ADD PUSH1 0x0 DUP4 DUP2 MSTORE PUSH1 0x20 ADD SWAP1 DUP2 MSTORE PUSH1 0x20 ADD PUSH1 0x0 KECCAK256 PUSH1 0x2 ADD SLOAD EQ ISZERO PUSH2 0xCB4 JUMPI DUP5 PUSH1 0x2 ADD PUSH1 0x0 DUP3 DUP2 MSTORE PUSH1 0x20 ADD SWAP1 DUP2 MSTORE PUSH1 0x20 ADD PUSH1 0x0 KECCAK256 PUSH1 0x1 ADD DUP1 SLOAD PUSH2 0xC09 SWAP1 PUSH2 0x236E JUMP JUMPDEST DUP1 PUSH1 0x1F ADD PUSH1 0x20 DUP1 SWAP2 DIV MUL PUSH1 0x20 ADD PUSH1 0x40 MLOAD SWAP1 DUP2 ADD PUSH1 0x40 MSTORE DUP1 SWAP3 SWAP2 SWAP1 DUP2 DUP2 MSTORE PUSH1 0x20 ADD DUP3 DUP1 SLOAD PUSH2 0xC35 SWAP1 PUSH2 0x236E JUMP JUMPDEST DUP1 ISZERO PUSH2 0xC82 JUMPI DUP1 PUSH1 0x1F LT PUSH2 0xC57 JUMPI PUSH2 0x100 DUP1 DUP4 SLOAD DIV MUL DUP4 MSTORE SWAP2 PUSH1 0x20 ADD SWAP2 PUSH2 0xC82 JUMP JUMPDEST DUP3 ADD SWAP2 SWAP1 PUSH1 0x0 MSTORE PUSH1 0x20 PUSH1 0x0 KECCAK256 SWAP1 JUMPDEST DUP2 SLOAD DUP2 MSTORE SWAP1 PUSH1 0x1 ADD SWAP1 PUSH1 0x20 ADD DUP1 DUP4 GT PUSH2 0xC65 JUMPI DUP3 SWAP1 SUB PUSH1 0x1F AND DUP3 ADD SWAP2 JUMPDEST POP POP POP POP POP DUP8 DUP4 DUP2 MLOAD DUP2 LT PUSH2 0xC9A JUMPI PUSH2 0xC99 PUSH2 0x20B2 JUMP JUMPDEST JUMPDEST PUSH1 0x20 MUL PUSH1 0x20 ADD ADD DUP2 SWAP1 MSTORE POP DUP2 DUP1 PUSH2 0xCB0 SWAP1 PUSH2 0x21A2 JUMP JUMPDEST SWAP3 POP POP JUMPDEST DUP1 DUP1 PUSH2 0xCBF SWAP1 PUSH2 0x21A2 JUMP JUMPDEST SWAP2 POP POP PUSH2 0xBBB JUMP JUMPDEST POP DUP3 SWAP5 POP POP POP POP POP SWAP2 POP SWAP2 JUMP JUMPDEST PUSH1 0x60 PUSH1 0x0 PUSH1 0x4 DUP1 SLOAD SWAP1 POP PUSH8 0xFFFFFFFFFFFFFFFF DUP2 GT ISZERO PUSH2 0xCF7 JUMPI PUSH2 0xCF6 PUSH2 0x2523 JUMP JUMPDEST JUMPDEST PUSH1 0x40 MLOAD SWAP1 DUP1 DUP3 MSTORE DUP1 PUSH1 0x20 MUL PUSH1 0x20 ADD DUP3 ADD PUSH1 0x40 MSTORE DUP1 ISZERO PUSH2 0xD2A JUMPI DUP2 PUSH1 0x20 ADD JUMPDEST PUSH1 0x60 DUP2 MSTORE PUSH1 0x20 ADD SWAP1 PUSH1 0x1 SWAP1 SUB SWAP1 DUP2 PUSH2 0xD15 JUMPI SWAP1 POP JUMPDEST POP SWAP1 POP PUSH1 0x0 JUMPDEST PUSH1 0x4 DUP1 SLOAD SWAP1 POP DUP2 LT ISZERO PUSH2 0xE28 JUMPI PUSH1 0x5 PUSH1 0x0 PUSH1 0x4 DUP4 DUP2 SLOAD DUP2 LT PUSH2 0xD55 JUMPI PUSH2 0xD54 PUSH2 0x20B2 JUMP JUMPDEST JUMPDEST SWAP1 PUSH1 0x0 MSTORE PUSH1 0x20 PUSH1 0x0 KECCAK256 ADD SLOAD DUP2 MSTORE PUSH1 0x20 ADD SWAP1 DUP2 MSTORE PUSH1 0x20 ADD PUSH1 0x0 KECCAK256 DUP1 SLOAD PUSH2 0xD79 SWAP1 PUSH2 0x236E JUMP JUMPDEST DUP1 PUSH1 0x1F ADD PUSH1 0x20 DUP1 SWAP2 DIV MUL PUSH1 0x20 ADD PUSH1 0x40 MLOAD SWAP1 DUP2 ADD PUSH1 0x40 MSTORE DUP1 SWAP3 SWAP2 SWAP1 DUP2 DUP2 MSTORE PUSH1 0x20 ADD DUP3 DUP1 SLOAD PUSH2 0xDA5 SWAP1 PUSH2 0x236E JUMP JUMPDEST DUP1 ISZERO PUSH2 0xDF2 JUMPI DUP1 PUSH1 0x1F LT PUSH2 0xDC7 JUMPI PUSH2 0x100 DUP1 DUP4 SLOAD DIV MUL DUP4 MSTORE SWAP2 PUSH1 0x20 ADD SWAP2 PUSH2 0xDF2 JUMP JUMPDEST DUP3 ADD SWAP2 SWAP1 PUSH1 0x0 MSTORE PUSH1 0x20 PUSH1 0x0 KECCAK256 SWAP1 JUMPDEST DUP2 SLOAD DUP2 MSTORE SWAP1 PUSH1 0x1 ADD SWAP1 PUSH1 0x20 ADD DUP1 DUP4 GT PUSH2 0xDD5 JUMPI DUP3 SWAP1 SUB PUSH1 0x1F AND DUP3 ADD SWAP2 JUMPDEST POP POP POP POP POP DUP3 DUP3 DUP2 MLOAD DUP2 LT PUSH2 0xE0A JUMPI PUSH2 0xE09 PUSH2 0x20B2 JUMP JUMPDEST JUMPDEST PUSH1 0x20 MUL PUSH1 0x20 ADD ADD DUP2 SWAP1 MSTORE POP DUP1 DUP1 PUSH2 0xE20 SWAP1 PUSH2 0x21A2 JUMP JUMPDEST SWAP2 POP POP PUSH2 0xD30 JUMP JUMPDEST POP DUP1 SWAP2 POP POP SWAP1 JUMP JUMPDEST PUSH1 0x0 DUP1 SLOAD SWAP1 PUSH2 0x100 EXP SWAP1 DIV PUSH1 0xFF AND DUP2 JUMP JUMPDEST PUSH1 0x0 PUSH32 0x0 SWAP1 POP SWAP1 JUMP JUMPDEST PUSH32 0x0 DUP2 JUMP JUMPDEST PUSH1 0x0 PUSH1 0x1 SWAP1 SLOAD SWAP1 PUSH2 0x100 EXP SWAP1 DIV PUSH1 0xFF AND DUP2 JUMP JUMPDEST PUSH32 0x0 PUSH20 0xFFFFFFFFFFFFFFFFFFFFFFFFFFFFFFFFFFFFFFFF AND CALLER PUSH20 0xFFFFFFFFFFFFFFFFFFFFFFFFFFFFFFFFFFFFFFFF AND EQ PUSH2 0xF2E JUMPI PUSH1 0x40 MLOAD PUSH32 0x8C379A000000000000000000000000000000000000000000000000000000000 DUP2 MSTORE PUSH1 0x4 ADD PUSH2 0xF25 SWAP1 PUSH2 0x2026 JUMP JUMPDEST PUSH1 0x40 MLOAD DUP1 SWAP2 SUB SWAP1 REVERT JUMPDEST PUSH1 0x0 DUP1 SLOAD SWAP1 PUSH2 0x100 EXP SWAP1 DIV PUSH1 0xFF AND ISZERO PUSH2 0xF7C JUMPI PUSH1 0x40 MLOAD PUSH32 0x8C379A000000000000000000000000000000000000000000000000000000000 DUP2 MSTORE PUSH1 0x4 ADD PUSH2 0xF73 SWAP1 PUSH2 0x259E JUMP JUMPDEST PUSH1 0x40 MLOAD DUP1 SWAP2 SUB SWAP1 REVERT JUMPDEST DUP1 DUP3 LT PUSH2 0xFBE JUMPI PUSH1 0x40 MLOAD PUSH32 0x8C379A000000000000000000000000000000000000000000000000000000000 DUP2 MSTORE PUSH1 0x4 ADD PUSH2 0xFB5 SWAP1 PUSH2 0x260A JUMP JUMPDEST PUSH1 0x40 MLOAD DUP1 SWAP2 SUB SWAP1 REVERT JUMPDEST DUP2 PUSH1 0x1 DUP2 SWAP1 SSTORE POP DUP1 PUSH1 0x2 DUP2 SWAP1 SSTORE POP POP POP JUMP JUMPDEST PUSH1 0x0 DUP1 SLOAD SWAP1 PUSH2 0x100 EXP SWAP1 DIV PUSH1 0xFF AND DUP1 ISZERO PUSH2 0xFF7 JUMPI POP PUSH1 0x0 PUSH1 0x1 SWAP1 SLOAD SWAP1 PUSH2 0x100 EXP SWAP1 DIV PUSH1 0xFF AND ISZERO JUMPDEST PUSH2 0x1036 JUMPI PUSH1 0x40 MLOAD PUSH32 0x8C379A000000000000000000000000000000000000000000000000000000000 DUP2 MSTORE PUSH1 0x4 ADD PUSH2 0x102D SWAP1 PUSH2 0x2676 JUMP JUMPDEST PUSH1 0x40 MLOAD DUP1 SWAP2 SUB SWAP1 REVERT JUMPDEST PUSH1 0x1 SLOAD TIMESTAMP LT ISZERO PUSH2 0x107B JUMPI PUSH1 0x40 MLOAD PUSH32 0x8C379A000000000000000000000000000000000000000000000000000000000 DUP2 MSTORE PUSH1 0x4 ADD PUSH2 0x1072 SWAP1 PUSH2 0x26E2 JUMP JUMPDEST PUSH1 0x40 MLOAD DUP1 SWAP2 SUB SWAP1 REVERT JUMPDEST PUSH1 0x2 SLOAD TIMESTAMP GT ISZERO PUSH2 0x10C0 JUMPI PUSH1 0x40 MLOAD PUSH32 0x8C379A000000000000000000000000000000000000000000000000000000000 DUP2 MSTORE PUSH1 0x4 ADD PUSH2 0x10B7 SWAP1 PUSH2 0x274E JUMP JUMPDEST PUSH1 0x40 MLOAD DUP1 SWAP2 SUB SWAP1 REVERT JUMPDEST PUSH1 0x0 PUSH2 0x110F DUP5 DUP5 DUP1 DUP1 PUSH1 0x1F ADD PUSH1 0x20 DUP1 SWAP2 DIV MUL PUSH1 0x20 ADD PUSH1 0x40 MLOAD SWAP1 DUP2 ADD PUSH1 0x40 MSTORE DUP1 SWAP4 SWAP3 SWAP2 SWAP1 DUP2 DUP2 MSTORE PUSH1 0x20 ADD DUP4 DUP4 DUP1 DUP3 DUP5 CALLDATACOPY PUSH1 0x0 DUP2 DUP5 ADD MSTORE PUSH1 0x1F NOT PUSH1 0x1F DUP3 ADD AND SWAP1 POP DUP1 DUP4 ADD SWAP3 POP POP POP POP POP POP POP PUSH2 0x17CC JUMP JUMPDEST SWAP1 POP PUSH1 0x0 DUP2 PUSH1 0x40 MLOAD PUSH1 0x20 ADD PUSH2 0x1124 SWAP2 SWAP1 PUSH2 0x22BC JUMP JUMPDEST PUSH1 0x40 MLOAD PUSH1 0x20 DUP2 DUP4 SUB SUB DUP2 MSTORE SWAP1 PUSH1 0x40 MSTORE DUP1 MLOAD SWAP1 PUSH1 0x20 ADD KECCAK256 SWAP1 POP PUSH1 0x0 PUSH1 0x6 PUSH1 0x0 CALLER PUSH20 0xFFFFFFFFFFFFFFFFFFFFFFFFFFFFFFFFFFFFFFFF AND PUSH20 0xFFFFFFFFFFFFFFFFFFFFFFFFFFFFFFFFFFFFFFFF AND DUP2 MSTORE PUSH1 0x20 ADD SWAP1 DUP2 MSTORE PUSH1 0x20 ADD PUSH1 0x0 KECCAK256 SWAP1 POP DUP1 PUSH1 0x0 ADD PUSH1 0x0 DUP4 DUP2 MSTORE PUSH1 0x20 ADD SWAP1 DUP2 MSTORE PUSH1 0x20 ADD PUSH1 0x0 KECCAK256 PUSH1 0x0 SWAP1 SLOAD SWAP1 PUSH2 0x100 EXP SWAP1 DIV PUSH1 0xFF AND ISZERO PUSH2 0x11E2 JUMPI PUSH1 0x40 MLOAD PUSH32 0x8C379A000000000000000000000000000000000000000000000000000000000 DUP2 MSTORE PUSH1 0x4 ADD PUSH2 0x11D9 SWAP1 PUSH2 0x27BA JUMP JUMPDEST PUSH1 0x40 MLOAD DUP1 SWAP2 SUB SWAP1 REVERT JUMPDEST PUSH1 0x0 PUSH1 0x3 PUSH1 0x0 DUP5 DUP2 MSTORE PUSH1 0x20 ADD SWAP1 DUP2 MSTORE PUSH1 0x20 ADD PUSH1 0x0 KECCAK256 SWAP1 POP PUSH1 0x0 DUP6 GT DUP1 ISZERO PUSH2 0x120D JUMPI POP DUP1 PUSH1 0x1 ADD SLOAD DUP6 GT ISZERO JUMPDEST PUSH2 0x124C JUMPI PUSH1 0x40 MLOAD PUSH32 0x8C379A000000000000000000000000000000000000000000000000000000000 DUP2 MSTORE PUSH1 0x4 ADD PUSH2 0x1243 SWAP1 PUSH2 0x2826 JUMP JUMPDEST PUSH1 0x40 MLOAD DUP1 SWAP2 SUB SWAP1 REVERT JUMPDEST DUP1 PUSH1 0x2 ADD PUSH1 0x0 DUP7 DUP2 MSTORE PUSH1 0x20 ADD SWAP1 DUP2 MSTORE PUSH1 0x20 ADD PUSH1 0x0 KECCAK256 PUSH1 0x2 ADD PUSH1 0x0 DUP2 SLOAD DUP1 SWAP3 SWAP2 SWAP1 PUSH2 0x1275 SWAP1 PUSH2 0x21A2 JUMP JUMPDEST SWAP2 SWAP1 POP SSTORE POP PUSH1 0x1 DUP3 PUSH1 0x0 ADD PUSH1 0x0 DUP6 DUP2 MSTORE PUSH1 0x20 ADD SWAP1 DUP2 MSTORE PUSH1 0x20 ADD PUSH1 0x0 KECCAK256 PUSH1 0x0 PUSH2 0x100 EXP DUP2 SLOAD DUP2 PUSH1 0xFF MUL NOT AND SWAP1 DUP4 ISZERO ISZERO MUL OR SWAP1 SSTORE POP CALLER PUSH20 0xFFFFFFFFFFFFFFFFFFFFFFFFFFFFFFFFFFFFFFFF AND PUSH32 0x35B4034B2BBE10BB07B21969C986794A6276A531BB155886A9F883BB5C9DC8E8 DUP9 DUP9 DUP9 PUSH1 0x40 MLOAD PUSH2 0x12F2 SWAP4 SWAP3 SWAP2 SWAP1 PUSH2 0x2846 JUMP JUMPDEST PUSH1 0x40 MLOAD DUP1 SWAP2 SUB SWAP1 LOG2 POP POP POP POP POP POP POP JUMP JUMPDEST PUSH1 0x0 DUP1 PUSH2 0x1353 DUP5 DUP5 DUP1 DUP1 PUSH1 0x1F ADD PUSH1 0x20 DUP1 SWAP2 DIV MUL PUSH1 0x20 ADD PUSH1 0x40 MLOAD SWAP1 DUP2 ADD PUSH1 0x40 MSTORE DUP1 SWAP4 SWAP3 SWAP2 SWAP1 DUP2 DUP2 MSTORE PUSH1 0x20 ADD DUP4 DUP4 DUP1 DUP3 DUP5 CALLDATACOPY PUSH1 0x0 DUP2 DUP5 ADD MSTORE PUSH1 0x1F NOT PUSH1 0x1F DUP3 ADD AND SWAP1 POP DUP1 DUP4 ADD SWAP3 POP POP POP POP POP POP POP PUSH2 0x17CC JUMP JUMPDEST SWAP1 POP PUSH1 0x0 DUP2 PUSH1 0x40 MLOAD PUSH1 0x20 ADD PUSH2 0x1368 SWAP2 SWAP1 PUSH2 0x22BC JUMP JUMPDEST PUSH1 0x40 MLOAD PUSH1 0x20 DUP2 DUP4 SUB SUB DUP2 MSTORE SWAP1 PUSH1 0x40 MSTORE DUP1 MLOAD SWAP1 PUSH1 0x20 ADD KECCAK256 SWAP1 POP PUSH1 0x3 PUSH1 0x0 DUP3 DUP2 MSTORE PUSH1 0x20 ADD SWAP1 DUP2 MSTORE PUSH1 0x20 ADD PUSH1 0x0 KECCAK256 PUSH1 0x1 ADD SLOAD SWAP3 POP POP POP SWAP3 SWAP2 POP POP JUMP JUMPDEST PUSH32 0x0 PUSH20 0xFFFFFFFFFFFFFFFFFFFFFFFFFFFFFFFFFFFFFFFF AND CALLER PUSH20 0xFFFFFFFFFFFFFFFFFFFFFFFFFFFFFFFFFFFFFFFF AND EQ PUSH2 0x142F JUMPI PUSH1 0x40 MLOAD PUSH32 0x8C379A000000000000000000000000000000000000000000000000000000000 DUP2 MSTORE PUSH1 0x4 ADD PUSH2 0x1426 SWAP1 PUSH2 0x2026 JUMP JUMPDEST PUSH1 0x40 MLOAD DUP1 SWAP2 SUB SWAP1 REVERT JUMPDEST PUSH1 0x0 DUP1 SLOAD SWAP1 PUSH2 0x100 EXP SWAP1 DIV PUSH1 0xFF AND DUP1 ISZERO PUSH2 0x1456 JUMPI POP PUSH1 0x0 PUSH1 0x1 SWAP1 SLOAD SWAP1 PUSH2 0x100 EXP SWAP1 DIV PUSH1 0xFF AND ISZERO JUMPDEST PUSH2 0x1495 JUMPI PUSH1 0x40 MLOAD PUSH32 0x8C379A000000000000000000000000000000000000000000000000000000000 DUP2 MSTORE PUSH1 0x4 ADD PUSH2 0x148C SWAP1 PUSH2 0x28C4 JUMP JUMPDEST PUSH1 0x40 MLOAD DUP1 SWAP2 SUB SWAP1 REVERT JUMPDEST PUSH1 0x1 PUSH1 0x0 PUSH1 0x1 PUSH2 0x100 EXP DUP2 SLOAD DUP2 PUSH1 0xFF MUL NOT AND SWAP1 DUP4 ISZERO ISZERO MUL OR SWAP1 SSTORE POP PUSH32 0x7A19ED057DB79E3C2FA0B97A54B43BEF4FCE74B31BB6C01AF514B9A18A7F70AB PUSH1 0x40 MLOAD PUSH1 0x40 MLOAD DUP1 SWAP2 SUB SWAP1 LOG1 PUSH1 0x0 JUMPDEST PUSH1 0x4 DUP1 SLOAD SWAP1 POP DUP2 LT ISZERO PUSH2 0x164B JUMPI PUSH1 0x0 PUSH1 0x4 DUP3 DUP2 SLOAD DUP2 LT PUSH2 0x1502 JUMPI PUSH2 0x1501 PUSH2 0x20B2 JUMP JUMPDEST JUMPDEST SWAP1 PUSH1 0x0 MSTORE PUSH1 0x20 PUSH1 0x0 KECCAK256 ADD SLOAD SWAP1 POP PUSH1 0x0 DUP1 PUSH2 0x151B DUP4 PUSH2 0xA41 JUMP JUMPDEST SWAP2 POP SWAP2 POP PUSH1 0x0 PUSH1 0x5 PUSH1 0x0 DUP6 DUP2 MSTORE PUSH1 0x20 ADD SWAP1 DUP2 MSTORE PUSH1 0x20 ADD PUSH1 0x0 KECCAK256 DUP1 SLOAD PUSH2 0x153F SWAP1 PUSH2 0x236E JUMP JUMPDEST DUP1 PUSH1 0x1F ADD PUSH1 0x20 DUP1 SWAP2 DIV MUL PUSH1 0x20 ADD PUSH1 0x40 MLOAD SWAP1 DUP2 ADD PUSH1 0x40 MSTORE DUP1 SWAP3 SWAP2 SWAP1 DUP2 DUP2 MSTORE PUSH1 0x20 ADD DUP3 DUP1 SLOAD PUSH2 0x156B SWAP1 PUSH2 0x236E JUMP JUMPDEST DUP1 ISZERO PUSH2 0x15B8 JUMPI DUP1 PUSH1 0x1F LT PUSH2 0x158D JUMPI PUSH2 0x100 DUP1 DUP4 SLOAD DIV MUL DUP4 MSTORE SWAP2 PUSH1 0x20 ADD SWAP2 PUSH2 0x15B8 JUMP JUMPDEST DUP3 ADD SWAP2 SWAP1 PUSH1 0x0 MSTORE PUSH1 0x20 PUSH1 0x0 KECCAK256 SWAP1 JUMPDEST DUP2 SLOAD DUP2 MSTORE SWAP1 PUSH1 0x1 ADD SWAP1 PUSH1 0x20 ADD DUP1 DUP4 GT PUSH2 0x159B JUMPI DUP3 SWAP1 SUB PUSH1 0x1F AND DUP3 ADD SWAP2 JUMPDEST POP POP POP POP POP SWAP1 POP PUSH1 0x0 JUMPDEST DUP4 MLOAD DUP2 LT ISZERO PUSH2 0x1633 JUMPI PUSH32 0x1E43F1BD0826319650F82FE661065B838421080D6E0C25E83FD23A67098E1899 DUP3 DUP6 DUP4 DUP2 MLOAD DUP2 LT PUSH2 0x1600 JUMPI PUSH2 0x15FF PUSH2 0x20B2 JUMP JUMPDEST JUMPDEST PUSH1 0x20 MUL PUSH1 0x20 ADD ADD MLOAD DUP6 PUSH1 0x40 MLOAD PUSH2 0x1618 SWAP4 SWAP3 SWAP2 SWAP1 PUSH2 0x28E4 JUMP JUMPDEST PUSH1 0x40 MLOAD DUP1 SWAP2 SUB SWAP1 LOG1 DUP1 DUP1 PUSH2 0x162B SWAP1 PUSH2 0x21A2 JUMP JUMPDEST SWAP2 POP POP PUSH2 0x15C2 JUMP JUMPDEST POP POP POP POP POP DUP1 DUP1 PUSH2 0x1643 SWAP1 PUSH2 0x21A2 JUMP JUMPDEST SWAP2 POP POP PUSH2 0x14DF JUMP JUMPDEST POP JUMP JUMPDEST PUSH1 0x0 DUP1 PUSH2 0x169E DUP5 DUP5 DUP1 DUP1 PUSH1 0x1F ADD PUSH1 0x20 DUP1 SWAP2 DIV MUL PUSH1 0x20 ADD PUSH1 0x40 MLOAD SWAP1 DUP2 ADD PUSH1 0x40 MSTORE DUP1 SWAP4 SWAP3 SWAP2 SWAP1 DUP2 DUP2 MSTORE PUSH1 0x20 ADD DUP4 DUP4 DUP1 DUP3 DUP5 CALLDATACOPY PUSH1 0x0 DUP2 DUP5 ADD MSTORE PUSH1 0x1F NOT PUSH1 0x1F DUP3 ADD AND SWAP1 POP DUP1 DUP4 ADD SWAP3 POP POP POP POP POP POP POP PUSH2 0x17CC JUMP JUMPDEST SWAP1 POP PUSH1 0x0 DUP2 PUSH1 0x40 MLOAD PUSH1 0x20 ADD PUSH2 0x16B3 SWAP2 SWAP1 PUSH2 0x22BC JUMP JUMPDEST PUSH1 0x40 MLOAD PUSH1 0x20 DUP2 DUP4 SUB SUB DUP2 MSTORE SWAP1 PUSH1 0x40 MSTORE DUP1 MLOAD SWAP1 PUSH1 0x20 ADD KECCAK256 SWAP1 POP PUSH1 0x6 PUSH1 0x0 DUP8 PUSH20 0xFFFFFFFFFFFFFFFFFFFFFFFFFFFFFFFFFFFFFFFF AND PUSH20 0xFFFFFFFFFFFFFFFFFFFFFFFFFFFFFFFFFFFFFFFF AND DUP2 MSTORE PUSH1 0x20 ADD SWAP1 DUP2 MSTORE PUSH1 0x20 ADD PUSH1 0x0 KECCAK256 PUSH1 0x0 ADD PUSH1 0x0 DUP3 DUP2 MSTORE PUSH1 0x20 ADD SWAP1 DUP2 MSTORE PUSH1 0x20 ADD PUSH1 0x0 KECCAK256 PUSH1 0x0 SWAP1 SLOAD SWAP1 PUSH2 0x100 EXP SWAP1 DIV PUSH1 0xFF AND SWAP3 POP POP POP SWAP4 SWAP3 POP POP POP JUMP JUMPDEST PUSH1 0x60 PUSH1 0x0 DUP1 PUSH2 0x1789 DUP6 DUP6 DUP1 DUP1 PUSH1 0x1F ADD PUSH1 0x20 DUP1 SWAP2 DIV MUL PUSH1 0x20 ADD PUSH1 0x40 MLOAD SWAP1 DUP2 ADD PUSH1 0x40 MSTORE DUP1 SWAP4 SWAP3 SWAP2 SWAP1 DUP2 DUP2 MSTORE PUSH1 0x20 ADD DUP4 DUP4 DUP1 DUP3 DUP5 CALLDATACOPY PUSH1 0x0 DUP2 DUP5 ADD MSTORE PUSH1 0x1F NOT PUSH1 0x1F DUP3 ADD AND SWAP1 POP DUP1 DUP4 ADD SWAP3 POP POP POP POP POP POP POP PUSH2 0x17CC JUMP JUMPDEST SWAP1 POP PUSH1 0x0 DUP2 PUSH1 0x40 MLOAD PUSH1 0x20 ADD PUSH2 0x179E SWAP2 SWAP1 PUSH2 0x22BC JUMP JUMPDEST PUSH1 0x40 MLOAD PUSH1 0x20 DUP2 DUP4 SUB SUB DUP2 MSTORE SWAP1 PUSH1 0x40 MSTORE DUP1 MLOAD SWAP1 PUSH1 0x20 ADD KECCAK256 SWAP1 POP PUSH2 0x17BF DUP2 PUSH2 0xA41 JUMP JUMPDEST SWAP4 POP SWAP4 POP POP POP SWAP3 POP SWAP3 SWAP1 POP JUMP JUMPDEST PUSH1 0x60 PUSH1 0x0 DUP3 SWAP1 POP PUSH1 0x0 JUMPDEST DUP2 MLOAD DUP2 LT ISZERO PUSH2 0x18C2 JUMPI PUSH1 0x41 DUP3 DUP3 DUP2 MLOAD DUP2 LT PUSH2 0x17F4 JUMPI PUSH2 0x17F3 PUSH2 0x20B2 JUMP JUMPDEST JUMPDEST PUSH1 0x20 ADD ADD MLOAD PUSH1 0xF8 SHR PUSH1 0xF8 SHL PUSH1 0xF8 SHR PUSH1 0xFF AND LT ISZERO DUP1 ISZERO PUSH2 0x1837 JUMPI POP PUSH1 0x5A DUP3 DUP3 DUP2 MLOAD DUP2 LT PUSH2 0x1823 JUMPI PUSH2 0x1822 PUSH2 0x20B2 JUMP JUMPDEST JUMPDEST PUSH1 0x20 ADD ADD MLOAD PUSH1 0xF8 SHR PUSH1 0xF8 SHL PUSH1 0xF8 SHR PUSH1 0xFF AND GT ISZERO JUMPDEST ISZERO PUSH2 0x18AF JUMPI PUSH1 0x20 DUP3 DUP3 DUP2 MLOAD DUP2 LT PUSH2 0x1851 JUMPI PUSH2 0x1850 PUSH2 0x20B2 JUMP JUMPDEST JUMPDEST PUSH1 0x20 ADD ADD MLOAD PUSH1 0xF8 SHR PUSH1 0xF8 SHL PUSH1 0xF8 SHR PUSH2 0x1869 SWAP2 SWAP1 PUSH2 0x2936 JUMP JUMPDEST PUSH1 0xF8 SHL DUP3 DUP3 DUP2 MLOAD DUP2 LT PUSH2 0x187F JUMPI PUSH2 0x187E PUSH2 0x20B2 JUMP JUMPDEST JUMPDEST PUSH1 0x20 ADD ADD SWAP1 PUSH31 0xFFFFFFFFFFFFFFFFFFFFFFFFFFFFFFFFFFFFFFFFFFFFFFFFFFFFFFFFFFFFFF NOT AND SWAP1 DUP2 PUSH1 0x0 BYTE SWAP1 MSTORE8 POP JUMPDEST DUP1 DUP1 PUSH2 0x18BA SWAP1 PUSH2 0x21A2 JUMP JUMPDEST SWAP2 POP POP PUSH2 0x17D6 JUMP JUMPDEST POP DUP1 SWAP2 POP POP SWAP2 SWAP1 POP JUMP JUMPDEST DUP3 DUP1 SLOAD PUSH2 0x18D8 SWAP1 PUSH2 0x236E JUMP JUMPDEST SWAP1 PUSH1 0x0 MSTORE PUSH1 0x20 PUSH1 0x0 KECCAK256 SWAP1 PUSH1 0x1F ADD PUSH1 0x20 SWAP1 DIV DUP2 ADD SWAP3 DUP3 PUSH2 0x18FA JUMPI PUSH1 0x0 DUP6 SSTORE PUSH2 0x1941 JUMP JUMPDEST DUP3 PUSH1 0x1F LT PUSH2 0x1913 JUMPI DUP1 CALLDATALOAD PUSH1 0xFF NOT AND DUP4 DUP1 ADD OR DUP6 SSTORE PUSH2 0x1941 JUMP JUMPDEST DUP3 DUP1 ADD PUSH1 0x1 ADD DUP6 SSTORE DUP3 ISZERO PUSH2 0x1941 JUMPI SWAP2 DUP3 ADD JUMPDEST DUP3 DUP2 GT ISZERO PUSH2 0x1940 JUMPI DUP3 CALLDATALOAD DUP3 SSTORE SWAP2 PUSH1 0x20 ADD SWAP2 SWAP1 PUSH1 0x1 ADD SWAP1 PUSH2 0x1925 JUMP JUMPDEST JUMPDEST POP SWAP1 POP PUSH2 0x194E SWAP2 SWAP1 PUSH2 0x19D8 JUMP JUMPDEST POP SWAP1 JUMP JUMPDEST DUP3 DUP1 SLOAD PUSH2 0x195E SWAP1 PUSH2 0x236E JUMP JUMPDEST SWAP1 PUSH1 0x0 MSTORE PUSH1 0x20 PUSH1 0x0 KECCAK256 SWAP1 PUSH1 0x1F ADD PUSH1 0x20 SWAP1 DIV DUP2 ADD SWAP3 DUP3 PUSH2 0x1980 JUMPI PUSH1 0x0 DUP6 SSTORE PUSH2 0x19C7 JUMP JUMPDEST DUP3 PUSH1 0x1F LT PUSH2 0x1999 JUMPI DUP1 MLOAD PUSH1 0xFF NOT AND DUP4 DUP1 ADD OR DUP6 SSTORE PUSH2 0x19C7 JUMP JUMPDEST DUP3 DUP1 ADD PUSH1 0x1 ADD DUP6 SSTORE DUP3 ISZERO PUSH2 0x19C7 JUMPI SWAP2 DUP3 ADD JUMPDEST DUP3 DUP2 GT ISZERO PUSH2 0x19C6 JUMPI DUP3 MLOAD DUP3 SSTORE SWAP2 PUSH1 0x20 ADD SWAP2 SWAP1 PUSH1 0x1 ADD SWAP1 PUSH2 0x19AB JUMP JUMPDEST JUMPDEST POP SWAP1 POP PUSH2 0x19D4 SWAP2 SWAP1 PUSH2 0x19D8 JUMP JUMPDEST POP SWAP1 JUMP JUMPDEST JUMPDEST DUP1 DUP3 GT ISZERO PUSH2 0x19F1 JUMPI PUSH1 0x0 DUP2 PUSH1 0x0 SWAP1 SSTORE POP PUSH1 0x1 ADD PUSH2 0x19D9 JUMP JUMPDEST POP SWAP1 JUMP JUMPDEST PUSH1 0x0 DUP2 SWAP1 POP SWAP2 SWAP1 POP JUMP JUMPDEST PUSH2 0x1A08 DUP2 PUSH2 0x19F5 JUMP JUMPDEST DUP3 MSTORE POP POP JUMP JUMPDEST PUSH1 0x0 PUSH1 0x20 DUP3 ADD SWAP1 POP PUSH2 0x1A23 PUSH1 0x0 DUP4 ADD DUP5 PUSH2 0x19FF JUMP JUMPDEST SWAP3 SWAP2 POP POP JUMP JUMPDEST PUSH1 0x0 DUP1 REVERT JUMPDEST PUSH1 0x0 DUP1 REVERT JUMPDEST PUSH1 0x0 DUP1 REVERT JUMPDEST PUSH1 0x0 DUP1 REVERT JUMPDEST PUSH1 0x0 DUP1 REVERT JUMPDEST PUSH1 0x0 DUP1 DUP4 PUSH1 0x1F DUP5 ADD SLT PUSH2 0x1A58 JUMPI PUSH2 0x1A57 PUSH2 0x1A33 JUMP JUMPDEST JUMPDEST DUP3 CALLDATALOAD SWAP1 POP PUSH8 0xFFFFFFFFFFFFFFFF DUP2 GT ISZERO PUSH2 0x1A75 JUMPI PUSH2 0x1A74 PUSH2 0x1A38 JUMP JUMPDEST JUMPDEST PUSH1 0x20 DUP4 ADD SWAP2 POP DUP4 PUSH1 0x1 DUP3 MUL DUP4 ADD GT ISZERO PUSH2 0x1A91 JUMPI PUSH2 0x1A90 PUSH2 0x1A3D JUMP JUMPDEST JUMPDEST SWAP3 POP SWAP3 SWAP1 POP JUMP JUMPDEST PUSH2 0x1AA1 DUP2 PUSH2 0x19F5 JUMP JUMPDEST DUP2 EQ PUSH2 0x1AAC JUMPI PUSH1 0x0 DUP1 REVERT JUMPDEST POP JUMP JUMPDEST PUSH1 0x0 DUP2 CALLDATALOAD SWAP1 POP PUSH2 0x1ABE DUP2 PUSH2 0x1A98 JUMP JUMPDEST SWAP3 SWAP2 POP POP JUMP JUMPDEST PUSH1 0x0 DUP1 PUSH1 0x0 PUSH1 0x40 DUP5 DUP7 SUB SLT ISZERO PUSH2 0x1ADD JUMPI PUSH2 0x1ADC PUSH2 0x1A29 JUMP JUMPDEST JUMPDEST PUSH1 0x0 DUP5 ADD CALLDATALOAD PUSH8 0xFFFFFFFFFFFFFFFF DUP2 GT ISZERO PUSH2 0x1AFB JUMPI PUSH2 0x1AFA PUSH2 0x1A2E JUMP JUMPDEST JUMPDEST PUSH2 0x1B07 DUP7 DUP3 DUP8 ADD PUSH2 0x1A42 JUMP JUMPDEST SWAP4 POP SWAP4 POP POP PUSH1 0x20 PUSH2 0x1B1A DUP7 DUP3 DUP8 ADD PUSH2 0x1AAF JUMP JUMPDEST SWAP2 POP POP SWAP3 POP SWAP3 POP SWAP3 JUMP JUMPDEST PUSH1 0x0 DUP2 MLOAD SWAP1 POP SWAP2 SWAP1 POP JUMP JUMPDEST PUSH1 0x0 DUP3 DUP3 MSTORE PUSH1 0x20 DUP3 ADD SWAP1 POP SWAP3 SWAP2 POP POP JUMP JUMPDEST PUSH1 0x0 JUMPDEST DUP4 DUP2 LT ISZERO PUSH2 0x1B5E JUMPI DUP1 DUP3 ADD MLOAD DUP2 DUP5 ADD MSTORE PUSH1 0x20 DUP2 ADD SWAP1 POP PUSH2 0x1B43 JUMP JUMPDEST DUP4 DUP2 GT ISZERO PUSH2 0x1B6D JUMPI PUSH1 0x0 DUP5 DUP5 ADD MSTORE JUMPDEST POP POP POP POP JUMP JUMPDEST PUSH1 0x0 PUSH1 0x1F NOT PUSH1 0x1F DUP4 ADD AND SWAP1 POP SWAP2 SWAP1 POP JUMP JUMPDEST PUSH1 0x0 PUSH2 0x1B8F DUP3 PUSH2 0x1B24 JUMP JUMPDEST PUSH2 0x1B99 DUP2 DUP6 PUSH2 0x1B2F JUMP JUMPDEST SWAP4 POP PUSH2 0x1BA9 DUP2 DUP6 PUSH1 0x20 DUP7 ADD PUSH2 0x1B40 JUMP JUMPDEST PUSH2 0x1BB2 DUP2 PUSH2 0x1B73 JUMP JUMPDEST DUP5 ADD SWAP2 POP POP SWAP3 SWAP2 POP POP JUMP JUMPDEST PUSH1 0x0 PUSH1 0x40 DUP3 ADD SWAP1 POP DUP2 DUP2 SUB PUSH1 0x0 DUP4 ADD MSTORE PUSH2 0x1BD7 DUP2 DUP6 PUSH2 0x1B84 JUMP JUMPDEST SWAP1 POP PUSH2 0x1BE6 PUSH1 0x20 DUP4 ADD DUP5 PUSH2 0x19FF JUMP JUMPDEST SWAP4 SWAP3 POP POP POP JUMP JUMPDEST PUSH1 0x0 DUP1 PUSH1 0x0 DUP1 PUSH1 0x40 DUP6 DUP8 SUB SLT ISZERO PUSH2 0x1C07 JUMPI PUSH2 0x1C06 PUSH2 0x1A29 JUMP JUMPDEST JUMPDEST PUSH1 0x0 DUP6 ADD CALLDATALOAD PUSH8 0xFFFFFFFFFFFFFFFF DUP2 GT ISZERO PUSH2 0x1C25 JUMPI PUSH2 0x1C24 PUSH2 0x1A2E JUMP JUMPDEST JUMPDEST PUSH2 0x1C31 DUP8 DUP3 DUP9 ADD PUSH2 0x1A42 JUMP JUMPDEST SWAP5 POP SWAP5 POP POP PUSH1 0x20 DUP6 ADD CALLDATALOAD PUSH8 0xFFFFFFFFFFFFFFFF DUP2 GT ISZERO PUSH2 0x1C54 JUMPI PUSH2 0x1C53 PUSH2 0x1A2E JUMP JUMPDEST JUMPDEST PUSH2 0x1C60 DUP8 DUP3 DUP9 ADD PUSH2 0x1A42 JUMP JUMPDEST SWAP3 POP SWAP3 POP POP SWAP3 SWAP6 SWAP2 SWAP5 POP SWAP3 POP JUMP JUMPDEST PUSH1 0x0 DUP2 SWAP1 POP SWAP2 SWAP1 POP JUMP JUMPDEST PUSH2 0x1C81 DUP2 PUSH2 0x1C6E JUMP JUMPDEST DUP2 EQ PUSH2 0x1C8C JUMPI PUSH1 0x0 DUP1 REVERT JUMPDEST POP JUMP JUMPDEST PUSH1 0x0 DUP2 CALLDATALOAD SWAP1 POP PUSH2 0x1C9E DUP2 PUSH2 0x1C78 JUMP JUMPDEST SWAP3 SWAP2 POP POP JUMP JUMPDEST PUSH1 0x0 PUSH1 0x20 DUP3 DUP5 SUB SLT ISZERO PUSH2 0x1CBA JUMPI PUSH2 0x1CB9 PUSH2 0x1A29 JUMP JUMPDEST JUMPDEST PUSH1 0x0 PUSH2 0x1CC8 DUP5 DUP3 DUP6 ADD PUSH2 0x1C8F JUMP JUMPDEST SWAP2 POP POP SWAP3 SWAP2 POP POP JUMP JUMPDEST PUSH1 0x0 DUP2 MLOAD SWAP1 POP SWAP2 SWAP1 POP JUMP JUMPDEST PUSH1 0x0 DUP3 DUP3 MSTORE PUSH1 0x20 DUP3 ADD SWAP1 POP SWAP3 SWAP2 POP POP JUMP JUMPDEST PUSH1 0x0 DUP2 SWAP1 POP PUSH1 0x20 DUP3 ADD SWAP1 POP SWAP2 SWAP1 POP JUMP JUMPDEST PUSH1 0x0 DUP3 DUP3 MSTORE PUSH1 0x20 DUP3 ADD SWAP1 POP SWAP3 SWAP2 POP POP JUMP JUMPDEST PUSH1 0x0 PUSH2 0x1D19 DUP3 PUSH2 0x1B24 JUMP JUMPDEST PUSH2 0x1D23 DUP2 DUP6 PUSH2 0x1CFD JUMP JUMPDEST SWAP4 POP PUSH2 0x1D33 DUP2 DUP6 PUSH1 0x20 DUP7 ADD PUSH2 0x1B40 JUMP JUMPDEST PUSH2 0x1D3C DUP2 PUSH2 0x1B73 JUMP JUMPDEST DUP5 ADD SWAP2 POP POP SWAP3 SWAP2 POP POP JUMP JUMPDEST PUSH1 0x0 PUSH2 0x1D53 DUP4 DUP4 PUSH2 0x1D0E JUMP JUMPDEST SWAP1 POP SWAP3 SWAP2 POP POP JUMP JUMPDEST PUSH1 0x0 PUSH1 0x20 DUP3 ADD SWAP1 POP SWAP2 SWAP1 POP JUMP JUMPDEST PUSH1 0x0 PUSH2 0x1D73 DUP3 PUSH2 0x1CD1 JUMP JUMPDEST PUSH2 0x1D7D DUP2 DUP6 PUSH2 0x1CDC JUMP JUMPDEST SWAP4 POP DUP4 PUSH1 0x20 DUP3 MUL DUP6 ADD PUSH2 0x1D8F DUP6 PUSH2 0x1CED JUMP JUMPDEST DUP1 PUSH1 0x0 JUMPDEST DUP6 DUP2 LT ISZERO PUSH2 0x1DCB JUMPI DUP5 DUP5 SUB DUP10 MSTORE DUP2 MLOAD PUSH2 0x1DAC DUP6 DUP3 PUSH2 0x1D47 JUMP JUMPDEST SWAP5 POP PUSH2 0x1DB7 DUP4 PUSH2 0x1D5B JUMP JUMPDEST SWAP3 POP PUSH1 0x20 DUP11 ADD SWAP10 POP POP PUSH1 0x1 DUP2 ADD SWAP1 POP PUSH2 0x1D93 JUMP JUMPDEST POP DUP3 SWAP8 POP DUP8 SWAP6 POP POP POP POP POP POP SWAP3 SWAP2 POP POP JUMP JUMPDEST PUSH1 0x0 PUSH1 0x40 DUP3 ADD SWAP1 POP DUP2 DUP2 SUB PUSH1 0x0 DUP4 ADD MSTORE PUSH2 0x1DF7 DUP2 DUP6 PUSH2 0x1D68 JUMP JUMPDEST SWAP1 POP PUSH2 0x1E06 PUSH1 0x20 DUP4 ADD DUP5 PUSH2 0x19FF JUMP JUMPDEST SWAP4 SWAP3 POP POP POP JUMP JUMPDEST PUSH1 0x0 PUSH1 0x20 DUP3 ADD SWAP1 POP DUP2 DUP2 SUB PUSH1 0x0 DUP4 ADD MSTORE PUSH2 0x1E27 DUP2 DUP5 PUSH2 0x1D68 JUMP JUMPDEST SWAP1 POP SWAP3 SWAP2 POP POP JUMP JUMPDEST PUSH1 0x0 DUP2 ISZERO ISZERO SWAP1 POP SWAP2 SWAP1 POP JUMP JUMPDEST PUSH2 0x1E44 DUP2 PUSH2 0x1E2F JUMP JUMPDEST DUP3 MSTORE POP POP JUMP JUMPDEST PUSH1 0x0 PUSH1 0x20 DUP3 ADD SWAP1 POP PUSH2 0x1E5F PUSH1 0x0 DUP4 ADD DUP5 PUSH2 0x1E3B JUMP JUMPDEST SWAP3 SWAP2 POP POP JUMP JUMPDEST PUSH1 0x0 PUSH20 0xFFFFFFFFFFFFFFFFFFFFFFFFFFFFFFFFFFFFFFFF DUP3 AND SWAP1 POP SWAP2 SWAP1 POP JUMP JUMPDEST PUSH1 0x0 PUSH2 0x1E90 DUP3 PUSH2 0x1E65 JUMP JUMPDEST SWAP1 POP SWAP2 SWAP1 POP JUMP JUMPDEST PUSH2 0x1EA0 DUP2 PUSH2 0x1E85 JUMP JUMPDEST DUP3 MSTORE POP POP JUMP JUMPDEST PUSH1 0x0 PUSH1 0x20 DUP3 ADD SWAP1 POP PUSH2 0x1EBB PUSH1 0x0 DUP4 ADD DUP5 PUSH2 0x1E97 JUMP JUMPDEST SWAP3 SWAP2 POP POP JUMP JUMPDEST PUSH1 0x0 DUP1 PUSH1 0x40 DUP4 DUP6 SUB SLT ISZERO PUSH2 0x1ED8 JUMPI PUSH2 0x1ED7 PUSH2 0x1A29 JUMP JUMPDEST JUMPDEST PUSH1 0x0 PUSH2 0x1EE6 DUP6 DUP3 DUP7 ADD PUSH2 0x1AAF JUMP JUMPDEST SWAP3 POP POP PUSH1 0x20 PUSH2 0x1EF7 DUP6 DUP3 DUP7 ADD PUSH2 0x1AAF JUMP JUMPDEST SWAP2 POP POP SWAP3 POP SWAP3 SWAP1 POP JUMP JUMPDEST PUSH1 0x0 DUP1 PUSH1 0x20 DUP4 DUP6 SUB SLT ISZERO PUSH2 0x1F18 JUMPI PUSH2 0x1F17 PUSH2 0x1A29 JUMP JUMPDEST JUMPDEST PUSH1 0x0 DUP4 ADD CALLDATALOAD PUSH8 0xFFFFFFFFFFFFFFFF DUP2 GT ISZERO PUSH2 0x1F36 JUMPI PUSH2 0x1F35 PUSH2 0x1A2E JUMP JUMPDEST JUMPDEST PUSH2 0x1F42 DUP6 DUP3 DUP7 ADD PUSH2 0x1A42 JUMP JUMPDEST SWAP3 POP SWAP3 POP POP SWAP3 POP SWAP3 SWAP1 POP JUMP JUMPDEST PUSH2 0x1F57 DUP2 PUSH2 0x1E85 JUMP JUMPDEST DUP2 EQ PUSH2 0x1F62 JUMPI PUSH1 0x0 DUP1 REVERT JUMPDEST POP JUMP JUMPDEST PUSH1 0x0 DUP2 CALLDATALOAD SWAP1 POP PUSH2 0x1F74 DUP2 PUSH2 0x1F4E JUMP JUMPDEST SWAP3 SWAP2 POP POP JUMP JUMPDEST PUSH1 0x0 DUP1 PUSH1 0x0 PUSH1 0x40 DUP5 DUP7 SUB SLT ISZERO PUSH2 0x1F93 JUMPI PUSH2 0x1F92 PUSH2 0x1A29 JUMP JUMPDEST JUMPDEST PUSH1 0x0 PUSH2 0x1FA1 DUP7 DUP3 DUP8 ADD PUSH2 0x1F65 JUMP JUMPDEST SWAP4 POP POP PUSH1 0x20 DUP5 ADD CALLDATALOAD PUSH8 0xFFFFFFFFFFFFFFFF DUP2 GT ISZERO PUSH2 0x1FC2 JUMPI PUSH2 0x1FC1 PUSH2 0x1A2E JUMP JUMPDEST JUMPDEST PUSH2 0x1FCE DUP7 DUP3 DUP8 ADD PUSH2 0x1A42 JUMP JUMPDEST SWAP3 POP SWAP3 POP POP SWAP3 POP SWAP3 POP SWAP3 JUMP JUMPDEST PUSH32 0x4F6E6C79206F776E65722063616E20706572666F726D20746869730000000000 PUSH1 0x0 DUP3 ADD MSTORE POP JUMP JUMPDEST PUSH1 0x0 PUSH2 0x2010 PUSH1 0x1B DUP4 PUSH2 0x1B2F JUMP JUMPDEST SWAP2 POP PUSH2 0x201B DUP3 PUSH2 0x1FDA JUMP JUMPDEST PUSH1 0x20 DUP3 ADD SWAP1 POP SWAP2 SWAP1 POP JUMP JUMPDEST PUSH1 0x0 PUSH1 0x20 DUP3 ADD SWAP1 POP DUP2 DUP2 SUB PUSH1 0x0 DUP4 ADD MSTORE PUSH2 0x203F DUP2 PUSH2 0x2003 JUMP JUMPDEST SWAP1 POP SWAP2 SWAP1 POP JUMP JUMPDEST PUSH32 0x4E6F20706F736974696F6E7320746F20766F7465206F6E000000000000000000 PUSH1 0x0 DUP3 ADD MSTORE POP JUMP JUMPDEST PUSH1 0x0 PUSH2 0x207C PUSH1 0x17 DUP4 PUSH2 0x1B2F JUMP JUMPDEST SWAP2 POP PUSH2 0x2087 DUP3 PUSH2 0x2046 JUMP JUMPDEST PUSH1 0x20 DUP3 ADD SWAP1 POP SWAP2 SWAP1 POP JUMP JUMPDEST PUSH1 0x0 PUSH1 0x20 DUP3 ADD SWAP1 POP DUP2 DUP2 SUB PUSH1 0x0 DUP4 ADD MSTORE PUSH2 0x20AB DUP2 PUSH2 0x206F JUMP JUMPDEST SWAP1 POP SWAP2 SWAP1 POP JUMP JUMPDEST PUSH32 0x4E487B7100000000000000000000000000000000000000000000000000000000 PUSH1 0x0 MSTORE PUSH1 0x32 PUSH1 0x4 MSTORE PUSH1 0x24 PUSH1 0x0 REVERT JUMPDEST PUSH32 0x4561636820706F736974696F6E206D7573742068617665206174206C65617374 PUSH1 0x0 DUP3 ADD MSTORE PUSH32 0x20322063616E6469646174657300000000000000000000000000000000000000 PUSH1 0x20 DUP3 ADD MSTORE POP JUMP JUMPDEST PUSH1 0x0 PUSH2 0x213D PUSH1 0x2D DUP4 PUSH2 0x1B2F JUMP JUMPDEST SWAP2 POP PUSH2 0x2148 DUP3 PUSH2 0x20E1 JUMP JUMPDEST PUSH1 0x40 DUP3 ADD SWAP1 POP SWAP2 SWAP1 POP JUMP JUMPDEST PUSH1 0x0 PUSH1 0x20 DUP3 ADD SWAP1 POP DUP2 DUP2 SUB PUSH1 0x0 DUP4 ADD MSTORE PUSH2 0x216C DUP2 PUSH2 0x2130 JUMP JUMPDEST SWAP1 POP SWAP2 SWAP1 POP JUMP JUMPDEST PUSH32 0x4E487B7100000000000000000000000000000000000000000000000000000000 PUSH1 0x0 MSTORE PUSH1 0x11 PUSH1 0x4 MSTORE PUSH1 0x24 PUSH1 0x0 REVERT JUMPDEST PUSH1 0x0 PUSH2 0x21AD DUP3 PUSH2 0x19F5 JUMP JUMPDEST SWAP2 POP PUSH32 0xFFFFFFFFFFFFFFFFFFFFFFFFFFFFFFFFFFFFFFFFFFFFFFFFFFFFFFFFFFFFFFFF DUP3 EQ ISZERO PUSH2 0x21E0 JUMPI PUSH2 0x21DF PUSH2 0x2173 JUMP JUMPDEST JUMPDEST PUSH1 0x1 DUP3 ADD SWAP1 POP SWAP2 SWAP1 POP JUMP JUMPDEST PUSH32 0x566F74696E6720706572696F64206E6F74207365740000000000000000000000 PUSH1 0x0 DUP3 ADD MSTORE POP JUMP JUMPDEST PUSH1 0x0 PUSH2 0x2221 PUSH1 0x15 DUP4 PUSH2 0x1B2F JUMP JUMPDEST SWAP2 POP PUSH2 0x222C DUP3 PUSH2 0x21EB JUMP JUMPDEST PUSH1 0x20 DUP3 ADD SWAP1 POP SWAP2 SWAP1 POP JUMP JUMPDEST PUSH1 0x0 PUSH1 0x20 DUP3 ADD SWAP1 POP DUP2 DUP2 SUB PUSH1 0x0 DUP4 ADD MSTORE PUSH2 0x2250 DUP2 PUSH2 0x2214 JUMP JUMPDEST SWAP1 POP SWAP2 SWAP1 POP JUMP JUMPDEST PUSH1 0x0 PUSH1 0x40 DUP3 ADD SWAP1 POP PUSH2 0x226C PUSH1 0x0 DUP4 ADD DUP6 PUSH2 0x19FF JUMP JUMPDEST PUSH2 0x2279 PUSH1 0x20 DUP4 ADD DUP5 PUSH2 0x19FF JUMP JUMPDEST SWAP4 SWAP3 POP POP POP JUMP JUMPDEST PUSH1 0x0 DUP2 SWAP1 POP SWAP3 SWAP2 POP POP JUMP JUMPDEST PUSH1 0x0 PUSH2 0x2296 DUP3 PUSH2 0x1B24 JUMP JUMPDEST PUSH2 0x22A0 DUP2 DUP6 PUSH2 0x2280 JUMP JUMPDEST SWAP4 POP PUSH2 0x22B0 DUP2 DUP6 PUSH1 0x20 DUP7 ADD PUSH2 0x1B40 JUMP JUMPDEST DUP1 DUP5 ADD SWAP2 POP POP SWAP3 SWAP2 POP POP JUMP JUMPDEST PUSH1 0x0 PUSH2 0x22C8 DUP3 DUP5 PUSH2 0x228B JUMP JUMPDEST SWAP2 POP DUP2 SWAP1 POP SWAP3 SWAP2 POP POP JUMP JUMPDEST PUSH32 0x496E76616C69642063616E646964617465204944000000000000000000000000 PUSH1 0x0 DUP3 ADD MSTORE POP JUMP JUMPDEST PUSH1 0x0 PUSH2 0x2309 PUSH1 0x14 DUP4 PUSH2 0x1B2F JUMP JUMPDEST SWAP2 POP PUSH2 0x2314 DUP3 PUSH2 0x22D3 JUMP JUMPDEST PUSH1 0x20 DUP3 ADD SWAP1 POP SWAP2 SWAP1 POP JUMP JUMPDEST PUSH1 0x0 PUSH1 0x20 DUP3 ADD SWAP1 POP DUP2 DUP2 SUB PUSH1 0x0 DUP4 ADD MSTORE PUSH2 0x2338 DUP2 PUSH2 0x22FC JUMP JUMPDEST SWAP1 POP SWAP2 SWAP1 POP JUMP JUMPDEST PUSH32 0x4E487B7100000000000000000000000000000000000000000000000000000000 PUSH1 0x0 MSTORE PUSH1 0x22 PUSH1 0x4 MSTORE PUSH1 0x24 PUSH1 0x0 REVERT JUMPDEST PUSH1 0x0 PUSH1 0x2 DUP3 DIV SWAP1 POP PUSH1 0x1 DUP3 AND DUP1 PUSH2 0x2386 JUMPI PUSH1 0x7F DUP3 AND SWAP2 POP JUMPDEST PUSH1 0x20 DUP3 LT DUP2 EQ ISZERO PUSH2 0x239A JUMPI PUSH2 0x2399 PUSH2 0x233F JUMP JUMPDEST JUMPDEST POP SWAP2 SWAP1 POP JUMP JUMPDEST PUSH32 0x43616E6E6F74206164642063616E6469646174657320616674657220766F7469 PUSH1 0x0 DUP3 ADD MSTORE PUSH32 0x6E67207374617274730000000000000000000000000000000000000000000000 PUSH1 0x20 DUP3 ADD MSTORE POP JUMP JUMPDEST PUSH1 0x0 PUSH2 0x23FC PUSH1 0x29 DUP4 PUSH2 0x1B2F JUMP JUMPDEST SWAP2 POP PUSH2 0x2407 DUP3 PUSH2 0x23A0 JUMP JUMPDEST PUSH1 0x40 DUP3 ADD SWAP1 POP SWAP2 SWAP1 POP JUMP JUMPDEST PUSH1 0x0 PUSH1 0x20 DUP3 ADD SWAP1 POP DUP2 DUP2 SUB PUSH1 0x0 DUP4 ADD MSTORE PUSH2 0x242B DUP2 PUSH2 0x23EF JUMP JUMPDEST SWAP1 POP SWAP2 SWAP1 POP JUMP JUMPDEST DUP3 DUP2 DUP4 CALLDATACOPY PUSH1 0x0 DUP4 DUP4 ADD MSTORE POP POP POP JUMP JUMPDEST PUSH1 0x0 PUSH2 0x244D DUP4 DUP6 PUSH2 0x1B2F JUMP JUMPDEST SWAP4 POP PUSH2 0x245A DUP4 DUP6 DUP5 PUSH2 0x2432 JUMP JUMPDEST PUSH2 0x2463 DUP4 PUSH2 0x1B73 JUMP JUMPDEST DUP5 ADD SWAP1 POP SWAP4 SWAP3 POP POP POP JUMP JUMPDEST PUSH1 0x0 PUSH1 0x60 DUP3 ADD SWAP1 POP DUP2 DUP2 SUB PUSH1 0x0 DUP4 ADD MSTORE PUSH2 0x2489 DUP2 DUP8 DUP10 PUSH2 0x2441 JUMP JUMPDEST SWAP1 POP PUSH2 0x2498 PUSH1 0x20 DUP4 ADD DUP7 PUSH2 0x19FF JUMP JUMPDEST DUP2 DUP2 SUB PUSH1 0x40 DUP4 ADD MSTORE PUSH2 0x24AB DUP2 DUP5 DUP7 PUSH2 0x2441 JUMP JUMPDEST SWAP1 POP SWAP7 SWAP6 POP POP POP POP POP POP JUMP JUMPDEST PUSH32 0x566F74696E67206E6F7420656E64656420796574000000000000000000000000 PUSH1 0x0 DUP3 ADD MSTORE POP JUMP JUMPDEST PUSH1 0x0 PUSH2 0x24ED PUSH1 0x14 DUP4 PUSH2 0x1B2F JUMP JUMPDEST SWAP2 POP PUSH2 0x24F8 DUP3 PUSH2 0x24B7 JUMP JUMPDEST PUSH1 0x20 DUP3 ADD SWAP1 POP SWAP2 SWAP1 POP JUMP JUMPDEST PUSH1 0x0 PUSH1 0x20 DUP3 ADD SWAP1 POP DUP2 DUP2 SUB PUSH1 0x0 DUP4 ADD MSTORE PUSH2 0x251C DUP2 PUSH2 0x24E0 JUMP JUMPDEST SWAP1 POP SWAP2 SWAP1 POP JUMP JUMPDEST PUSH32 0x4E487B7100000000000000000000000000000000000000000000000000000000 PUSH1 0x0 MSTORE PUSH1 0x41 PUSH1 0x4 MSTORE PUSH1 0x24 PUSH1 0x0 REVERT JUMPDEST PUSH32 0x566F74696E6720616C7265616479207374617274656400000000000000000000 PUSH1 0x0 DUP3 ADD MSTORE POP JUMP JUMPDEST PUSH1 0x0 PUSH2 0x2588 PUSH1 0x16 DUP4 PUSH2 0x1B2F JUMP JUMPDEST SWAP2 POP PUSH2 0x2593 DUP3 PUSH2 0x2552 JUMP JUMPDEST PUSH1 0x20 DUP3 ADD SWAP1 POP SWAP2 SWAP1 POP JUMP JUMPDEST PUSH1 0x0 PUSH1 0x20 DUP3 ADD SWAP1 POP DUP2 DUP2 SUB PUSH1 0x0 DUP4 ADD MSTORE PUSH2 0x25B7 DUP2 PUSH2 0x257B JUMP JUMPDEST SWAP1 POP SWAP2 SWAP1 POP JUMP JUMPDEST PUSH32 0x496E76616C696420766F74696E6720706572696F640000000000000000000000 PUSH1 0x0 DUP3 ADD MSTORE POP JUMP JUMPDEST PUSH1 0x0 PUSH2 0x25F4 PUSH1 0x15 DUP4 PUSH2 0x1B2F JUMP JUMPDEST SWAP2 POP PUSH2 0x25FF DUP3 PUSH2 0x25BE JUMP JUMPDEST PUSH1 0x20 DUP3 ADD SWAP1 POP SWAP2 SWAP1 POP JUMP JUMPDEST PUSH1 0x0 PUSH1 0x20 DUP3 ADD SWAP1 POP DUP2 DUP2 SUB PUSH1 0x0 DUP4 ADD MSTORE PUSH2 0x2623 DUP2 PUSH2 0x25E7 JUMP JUMPDEST SWAP1 POP SWAP2 SWAP1 POP JUMP JUMPDEST PUSH32 0x566F74696E67206973206E6F7420616374697665000000000000000000000000 PUSH1 0x0 DUP3 ADD MSTORE POP JUMP JUMPDEST PUSH1 0x0 PUSH2 0x2660 PUSH1 0x14 DUP4 PUSH2 0x1B2F JUMP JUMPDEST SWAP2 POP PUSH2 0x266B DUP3 PUSH2 0x262A JUMP JUMPDEST PUSH1 0x20 DUP3 ADD SWAP1 POP SWAP2 SWAP1 POP JUMP JUMPDEST PUSH1 0x0 PUSH1 0x20 DUP3 ADD SWAP1 POP DUP2 DUP2 SUB PUSH1 0x0 DUP4 ADD MSTORE PUSH2 0x268F DUP2 PUSH2 0x2653 JUMP JUMPDEST SWAP1 POP SWAP2 SWAP1 POP JUMP JUMPDEST PUSH32 0x566F74696E67206861736E277420737461727465642079657400000000000000 PUSH1 0x0 DUP3 ADD MSTORE POP JUMP JUMPDEST PUSH1 0x0 PUSH2 0x26CC PUSH1 0x19 DUP4 PUSH2 0x1B2F JUMP JUMPDEST SWAP2 POP PUSH2 0x26D7 DUP3 PUSH2 0x2696 JUMP JUMPDEST PUSH1 0x20 DUP3 ADD SWAP1 POP SWAP2 SWAP1 POP JUMP JUMPDEST PUSH1 0x0 PUSH1 0x20 DUP3 ADD SWAP1 POP DUP2 DUP2 SUB PUSH1 0x0 DUP4 ADD MSTORE PUSH2 0x26FB DUP2 PUSH2 0x26BF JUMP JUMPDEST SWAP1 POP SWAP2 SWAP1 POP JUMP JUMPDEST PUSH32 0x566F74696E672068617320656E64656400000000000000000000000000000000 PUSH1 0x0 DUP3 ADD MSTORE POP JUMP JUMPDEST PUSH1 0x0 PUSH2 0x2738 PUSH1 0x10 DUP4 PUSH2 0x1B2F JUMP JUMPDEST SWAP2 POP PUSH2 0x2743 DUP3 PUSH2 0x2702 JUMP JUMPDEST PUSH1 0x20 DUP3 ADD SWAP1 POP SWAP2 SWAP1 POP JUMP JUMPDEST PUSH1 0x0 PUSH1 0x20 DUP3 ADD SWAP1 POP DUP2 DUP2 SUB PUSH1 0x0 DUP4 ADD MSTORE PUSH2 0x2767 DUP2 PUSH2 0x272B JUMP JUMPDEST SWAP1 POP SWAP2 SWAP1 POP JUMP JUMPDEST PUSH32 0x416C726561647920766F74656420666F72207468697320706F736974696F6E00 PUSH1 0x0 DUP3 ADD MSTORE POP JUMP JUMPDEST PUSH1 0x0 PUSH2 0x27A4 PUSH1 0x1F DUP4 PUSH2 0x1B2F JUMP JUMPDEST SWAP2 POP PUSH2 0x27AF DUP3 PUSH2 0x276E JUMP JUMPDEST PUSH1 0x20 DUP3 ADD SWAP1 POP SWAP2 SWAP1 POP JUMP JUMPDEST PUSH1 0x0 PUSH1 0x20 DUP3 ADD SWAP1 POP DUP2 DUP2 SUB PUSH1 0x0 DUP4 ADD MSTORE PUSH2 0x27D3 DUP2 PUSH2 0x2797 JUMP JUMPDEST SWAP1 POP SWAP2 SWAP1 POP JUMP JUMPDEST PUSH32 0x496E76616C69642063616E646964617465000000000000000000000000000000 PUSH1 0x0 DUP3 ADD MSTORE POP JUMP JUMPDEST PUSH1 0x0 PUSH2 0x2810 PUSH1 0x11 DUP4 PUSH2 0x1B2F JUMP JUMPDEST SWAP2 POP PUSH2 0x281B DUP3 PUSH2 0x27DA JUMP JUMPDEST PUSH1 0x20 DUP3 ADD SWAP1 POP SWAP2 SWAP1 POP JUMP JUMPDEST PUSH1 0x0 PUSH1 0x20 DUP3 ADD SWAP1 POP DUP2 DUP2 SUB PUSH1 0x0 DUP4 ADD MSTORE PUSH2 0x283F DUP2 PUSH2 0x2803 JUMP JUMPDEST SWAP1 POP SWAP2 SWAP1 POP JUMP JUMPDEST PUSH1 0x0 PUSH1 0x40 DUP3 ADD SWAP1 POP DUP2 DUP2 SUB PUSH1 0x0 DUP4 ADD MSTORE PUSH2 0x2861 DUP2 DUP6 DUP8 PUSH2 0x2441 JUMP JUMPDEST SWAP1 POP PUSH2 0x2870 PUSH1 0x20 DUP4 ADD DUP5 PUSH2 0x19FF JUMP JUMPDEST SWAP5 SWAP4 POP POP POP POP JUMP JUMPDEST PUSH32 0x566F74696E67206E6F7420616374697665000000000000000000000000000000 PUSH1 0x0 DUP3 ADD MSTORE POP JUMP JUMPDEST PUSH1 0x0 PUSH2 0x28AE PUSH1 0x11 DUP4 PUSH2 0x1B2F JUMP JUMPDEST SWAP2 POP PUSH2 0x28B9 DUP3 PUSH2 0x2878 JUMP JUMPDEST PUSH1 0x20 DUP3 ADD SWAP1 POP SWAP2 SWAP1 POP JUMP JUMPDEST PUSH1 0x0 PUSH1 0x20 DUP3 ADD SWAP1 POP DUP2 DUP2 SUB PUSH1 0x0 DUP4 ADD MSTORE PUSH2 0x28DD DUP2 PUSH2 0x28A1 JUMP JUMPDEST SWAP1 POP SWAP2 SWAP1 POP JUMP JUMPDEST PUSH1 0x0 PUSH1 0x60 DUP3 ADD SWAP1 POP DUP2 DUP2 SUB PUSH1 0x0 DUP4 ADD MSTORE PUSH2 0x28FE DUP2 DUP7 PUSH2 0x1B84 JUMP JUMPDEST SWAP1 POP DUP2 DUP2 SUB PUSH1 0x20 DUP4 ADD MSTORE PUSH2 0x2912 DUP2 DUP6 PUSH2 0x1B84 JUMP JUMPDEST SWAP1 POP PUSH2 0x2921 PUSH1 0x40 DUP4 ADD DUP5 PUSH2 0x19FF JUMP JUMPDEST SWAP5 SWAP4 POP POP POP POP JUMP JUMPDEST PUSH1 0x0 PUSH1 0xFF DUP3 AND SWAP1 POP SWAP2 SWAP1 POP JUMP JUMPDEST PUSH1 0x0 PUSH2 0x2941 DUP3 PUSH2 0x2929 JUMP JUMPDEST SWAP2 POP PUSH2 0x294C DUP4 PUSH2 0x2929 JUMP JUMPDEST SWAP3 POP DUP3 PUSH1 0xFF SUB DUP3 GT ISZERO PUSH2 0x2962 JUMPI PUSH2 0x2961 PUSH2 0x2173 JUMP JUMPDEST JUMPDEST DUP3 DUP3 ADD SWAP1 POP SWAP3 SWAP2 POP POP JUMP INVALID LOG2 PUSH5 0x6970667358 0x22 SLT KECCAK256 MSTORE 0xC7 PUSH16 0x3A3737DF05485E28241A695B2332D013 0xF8 CREATE2 DUP9 0xF7 PUSH26 0x10694A737C3932EA64736F6C6343000809003300000000000000 "},"methodIdentifiers":{"addCandidate(string,string)":"26541b56","endVoting()":"c3403ddf","getCandidate(string,uint256)":"1eccd22f","getCandidateCount(string)":"ae179ebc","getOwner()":"893d20e8","getPositions()":"80275860","getWinners(bytes32)":"4a61fc1e","getWinnersByPosition(string)":"e0bec11f","hasVoted(address,string)":"c6847060","owner()":"8da5cb5b","setVotingPeriod(uint256,uint256)":"a15a36c7","startVoting()":"1ec6b60a","vote(string,uint256)":"a6385803","votingEndTime()":"1ea736e0","votingEnded()":"9d5a0529","votingStartTime()":"2019a608","votingStarted()":"83d948b7"}}}}}