{
  "_format": "hh-sol-artifact-1",
  "contractName": "VotingSystem",
  "sourceName": "contracts/voting.sol",
  "abi": [
    {
      "inputs": [],
      "stateMutability": "nonpayable",
      "type": "constructor"
    },
    {
      "anonymous": false,
      "inputs": [
        {
          "indexed": false,
          "internalType": "string",
          "name": "position",
          "type": "string"
        },
        {
          "indexed": false,
          "internalType": "uint256",
          "name": "candidateId",
          "type": "uint256"
        },
        {
          "indexed": false,
          "internalType": "string",
          "name": "name",
          "type": "string"
        }
      ],
      "name": "CandidateAdded",
      "type": "event"
    },
    {
      "anonymous": false,
      "inputs": [
        {
          "indexed": true,
          "internalType": "address",
          "name": "voter",
          "type": "address"
        },
        {
          "indexed": false,
          "internalType": "string",
          "name": "position",
          "type": "string"
        },
        {
          "indexed": false,
          "internalType": "uint256",
          "name": "candidateId",
          "type": "uint256"
        }
      ],
      "name": "Voted",
      "type": "event"
    },
    {
      "anonymous": false,
      "inputs": [],
      "name": "VotingEnded",
      "type": "event"
    },
    {
      "anonymous": false,
      "inputs": [],
      "name": "VotingStarted",
      "type": "event"
    },
    {
      "anonymous": false,
      "inputs": [
        {
          "indexed": false,
          "internalType": "string",
          "name": "position",
          "type": "string"
        },
        {
          "indexed": false,
          "internalType": "string",
          "name": "name",
          "type": "string"
        },
        {
          "indexed": false,
          "internalType": "uint256",
          "name": "votes",
          "type": "uint256"
        }
      ],
      "name": "WinnerDeclared",
      "type": "event"
    },
    {
      "inputs": [
        {
          "internalType": "string",
          "name": "position",
          "type": "string"
        },
        {
          "internalType": "string",
          "name": "_name",
          "type": "string"
        }
      ],
      "name": "addCandidate",
      "outputs": [],
      "stateMutability": "nonpayable",
      "type": "function"
    },
    {
      "inputs": [],
      "name": "endVoting",
      "outputs": [],
      "stateMutability": "nonpayable",
      "type": "function"
    },
    {
      "inputs": [
        {
          "internalType": "string",
          "name": "position",
          "type": "string"
        },
        {
          "internalType": "uint256",
          "name": "candidateId",
          "type": "uint256"
        }
      ],
      "name": "getCandidate",
      "outputs": [
        {
          "internalType": "string",
          "name": "",
          "type": "string"
        },
        {
          "internalType": "uint256",
          "name": "",
          "type": "uint256"
        }
      ],
      "stateMutability": "view",
      "type": "function"
    },
    {
      "inputs": [
        {
          "internalType": "string",
          "name": "position",
          "type": "string"
        }
      ],
      "name": "getCandidateCount",
      "outputs": [
        {
          "internalType": "uint256",
          "name": "",
          "type": "uint256"
        }
      ],
      "stateMutability": "view",
      "type": "function"
    },
    {
      "inputs": [],
      "name": "getPositions",
      "outputs": [
        {
          "internalType": "string[]",
          "name": "",
          "type": "string[]"
        }
      ],
      "stateMutability": "view",
      "type": "function"
    },
    {
      "inputs": [
        {
          "internalType": "bytes32",
          "name": "positionKey",
          "type": "bytes32"
        }
      ],
      "name": "getWinners",
      "outputs": [
        {
          "internalType": "string[]",
          "name": "names",
          "type": "string[]"
        },
        {
          "internalType": "uint256",
          "name": "votes",
          "type": "uint256"
        }
      ],
      "stateMutability": "view",
      "type": "function"
    },
    {
      "inputs": [
        {
          "internalType": "string",
          "name": "position",
          "type": "string"
        }
      ],
      "name": "getWinnersByPosition",
      "outputs": [
        {
          "internalType": "string[]",
          "name": "",
          "type": "string[]"
        },
        {
          "internalType": "uint256",
          "name": "",
          "type": "uint256"
        }
      ],
      "stateMutability": "view",
      "type": "function"
    },
    {
      "inputs": [
        {
          "internalType": "address",
          "name": "voterAddr",
          "type": "address"
        },
        {
          "internalType": "string",
          "name": "position",
          "type": "string"
        }
      ],
      "name": "hasVoted",
      "outputs": [
        {
          "internalType": "bool",
          "name": "",
          "type": "bool"
        }
      ],
      "stateMutability": "view",
      "type": "function"
    },
    {
      "inputs": [],
      "name": "owner",
      "outputs": [
        {
          "internalType": "address",
          "name": "",
          "type": "address"
        }
      ],
      "stateMutability": "view",
      "type": "function"
    },
    {
      "inputs": [],
      "name": "startVoting",
      "outputs": [],
      "stateMutability": "nonpayable",
      "type": "function"
    },
    {
      "inputs": [
        {
          "internalType": "string",
          "name": "position",
          "type": "string"
        },
        {
          "internalType": "uint256",
          "name": "candidateId",
          "type": "uint256"
        }
      ],
      "name": "vote",
      "outputs": [],
      "stateMutability": "nonpayable",
      "type": "function"
    },
    {
      "inputs": [],
      "name": "votingEnded",
      "outputs": [
        {
          "internalType": "bool",
          "name": "",
          "type": "bool"
        }
      ],
      "stateMutability": "view",
      "type": "function"
    },
    {
      "inputs": [],
      "name": "votingStarted",
      "outputs": [
        {
          "internalType": "bool",
          "name": "",
          "type": "bool"
        }
      ],
      "stateMutability": "view",
      "type": "function"
    }
  ],
  "bytecode": "0x60a060405234801561001057600080fd5b503373ffffffffffffffffffffffffffffffffffffffff1660808173ffffffffffffffffffffffffffffffffffffffff16815250506080516124196100756000396000818161028d0152818161060801528181610d20015261109e01526124196000f3fe608060405234801561001057600080fd5b50600436106100cf5760003560e01c80638da5cb5b1161008c578063ae179ebc11610066578063ae179ebc146101f0578063c3403ddf14610220578063c68470601461022a578063e0bec11f1461025a576100cf565b80638da5cb5b146101985780639d5a0529146101b6578063a6385803146101d4576100cf565b80631ec6b60a146100d45780631eccd22f146100de57806326541b561461010f5780634a61fc1e1461012b578063802758601461015c57806383d948b71461017a575b600080fd5b6100dc61028b565b005b6100f860048036038101906100f39190611795565b61045f565b60405161010692919061189d565b60405180910390f35b610129600480360381019061012491906118cd565b610606565b005b61014560048036038101906101409190611984565b61091e565b604051610153929190611abd565b60405180910390f35b610164610bb1565b6040516101719190611aed565b60405180910390f35b610182610d0d565b60405161018f9190611b2a565b60405180910390f35b6101a0610d1e565b6040516101ad9190611b86565b60405180910390f35b6101be610d42565b6040516101cb9190611b2a565b60405180910390f35b6101ee60048036038101906101e99190611795565b610d55565b005b61020a60048036038101906102059190611ba1565b610ffe565b6040516102179190611bee565b60405180910390f35b61022861109c565b005b610244600480360381019061023f9190611c35565b611349565b6040516102519190611b2a565b60405180910390f35b610274600480360381019061026f9190611ba1565b611432565b604051610282929190611abd565b60405180910390f35b7f000000000000000000000000000000000000000000000000000000000000000073ffffffffffffffffffffffffffffffffffffffff163373ffffffffffffffffffffffffffffffffffffffff1614610319576040517f08c379a000000000000000000000000000000000000000000000000000000000815260040161031090611ce1565b60405180910390fd5b600060028054905011610361576040517f08c379a000000000000000000000000000000000000000000000000000000000815260040161035890611d4d565b60405180910390fd5b60005b6002805490508110156103fc576002600160006002848154811061038b5761038a611d6d565b5b906000526020600020015481526020019081526020016000206001015410156103e9576040517f08c379a00000000000000000000000000000000000000000000000000000000081526004016103e090611e0e565b60405180910390fd5b80806103f490611e5d565b915050610364565b5060016000806101000a81548160ff02191690831515021790555060008060016101000a81548160ff0219169083151502179055507f877e2548498f42b7975a186b94ef1d32c86d420b7b806dd2be2bea293b89590460405160405180910390a1565b60606000806104b186868080601f016020809104026020016040519081016040528093929190818152602001838380828437600081840152601f19601f820116905080830192505050505050506114c7565b90506000816040516020016104c69190611ee2565b6040516020818303038152906040528051906020012090506000600160008381526020019081526020016000209050600086118015610509575080600101548611155b610548576040517f08c379a000000000000000000000000000000000000000000000000000000000815260040161053f90611f45565b60405180910390fd5b6000816002016000888152602001908152602001600020905080600101816002015481805461057690611f94565b80601f01602080910402602001604051908101604052809291908181526020018280546105a290611f94565b80156105ef5780601f106105c4576101008083540402835291602001916105ef565b820191906000526020600020905b8154815290600101906020018083116105d257829003601f168201915b505050505091509550955050505050935093915050565b7f000000000000000000000000000000000000000000000000000000000000000073ffffffffffffffffffffffffffffffffffffffff163373ffffffffffffffffffffffffffffffffffffffff1614610694576040517f08c379a000000000000000000000000000000000000000000000000000000000815260040161068b90611ce1565b60405180910390fd5b60008054906101000a900460ff16156106e2576040517f08c379a00000000000000000000000000000000000000000000000000000000081526004016106d990612038565b60405180910390fd5b600061073185858080601f016020809104026020016040519081016040528093929190818152602001838380828437600081840152601f19601f820116905080830192505050505050506114c7565b90506000816040516020016107469190611ee2565b6040516020818303038152906040528051906020012090506000600160008381526020019081526020016000206001015414156107f057600281908060018154018082558091505060019003906000526020600020016000909190919091505585856001600084815260200190815260200160002060000191906107cb9291906115c7565b5085856003600084815260200190815260200160002091906107ee9291906115c7565b505b600060016000838152602001908152602001600020905080600101600081548092919061081c90611e5d565b919050555060405180606001604052808260010154815260200186868080601f016020809104026020016040519081016040528093929190818152602001838380828437600081840152601f19601f8201169050808301925050505050505081526020016000815250816002016000836001015481526020019081526020016000206000820151816000015560208201518160010190805190602001906108c492919061164d565b50604082015181600201559050507fdbbc48772584850c2086f66c22a3654c9e46524ff539fd9d72198d91cb7c13c087878360010154888860405161090d959493929190612094565b60405180910390a150505050505050565b606060008060019054906101000a900460ff16610970576040517f08c379a000000000000000000000000000000000000000000000000000000000815260040161096790612129565b60405180910390fd5b6000600160008581526020019081526020016000209050600080600190505b826001015481116109e957818360020160008381526020019081526020016000206002015411156109d6578260020160008281526020019081526020016000206002015491505b80806109e190611e5d565b91505061098f565b50600080600190505b83600101548111610a3f5782846002016000838152602001908152602001600020600201541415610a2c578180610a2890611e5d565b9250505b8080610a3790611e5d565b9150506109f2565b508067ffffffffffffffff811115610a5a57610a59612149565b5b604051908082528060200260200182016040528015610a8d57816020015b6060815260200190600190039081610a785790505b509450600080600190505b84600101548111610ba45783856002016000838152602001908152602001600020600201541415610b91578460020160008281526020019081526020016000206001018054610ae690611f94565b80601f0160208091040260200160405190810160405280929190818152602001828054610b1290611f94565b8015610b5f5780601f10610b3457610100808354040283529160200191610b5f565b820191906000526020600020905b815481529060010190602001808311610b4257829003601f168201915b5050505050878381518110610b7757610b76611d6d565b5b60200260200101819052508180610b8d90611e5d565b9250505b8080610b9c90611e5d565b915050610a98565b5082945050505050915091565b6060600060028054905067ffffffffffffffff811115610bd457610bd3612149565b5b604051908082528060200260200182016040528015610c0757816020015b6060815260200190600190039081610bf25790505b50905060005b600280549050811015610d05576003600060028381548110610c3257610c31611d6d565b5b906000526020600020015481526020019081526020016000208054610c5690611f94565b80601f0160208091040260200160405190810160405280929190818152602001828054610c8290611f94565b8015610ccf5780601f10610ca457610100808354040283529160200191610ccf565b820191906000526020600020905b815481529060010190602001808311610cb257829003601f168201915b5050505050828281518110610ce757610ce6611d6d565b5b60200260200101819052508080610cfd90611e5d565b915050610c0d565b508091505090565b60008054906101000a900460ff1681565b7f000000000000000000000000000000000000000000000000000000000000000081565b600060019054906101000a900460ff1681565b60008054906101000a900460ff168015610d7c5750600060019054906101000a900460ff16155b610dbb576040517f08c379a0000000000000000000000000000000000000000000000000000000008152600401610db2906121c4565b60405180910390fd5b6000610e0a84848080601f016020809104026020016040519081016040528093929190818152602001838380828437600081840152601f19601f820116905080830192505050505050506114c7565b9050600081604051602001610e1f9190611ee2565b6040516020818303038152906040528051906020012090506000600460003373ffffffffffffffffffffffffffffffffffffffff1673ffffffffffffffffffffffffffffffffffffffff168152602001908152602001600020905080600001600083815260200190815260200160002060009054906101000a900460ff1615610edd576040517f08c379a0000000000000000000000000000000000000000000000000000000008152600401610ed490612230565b60405180910390fd5b6000600160008481526020019081526020016000209050600085118015610f08575080600101548511155b610f47576040517f08c379a0000000000000000000000000000000000000000000000000000000008152600401610f3e9061229c565b60405180910390fd5b8060020160008681526020019081526020016000206002016000815480929190610f7090611e5d565b9190505550600182600001600085815260200190815260200160002060006101000a81548160ff0219169083151502179055503373ffffffffffffffffffffffffffffffffffffffff167f35b4034b2bbe10bb07b21969c986794a6276a531bb155886a9f883bb5c9dc8e8888888604051610fed939291906122bc565b60405180910390a250505050505050565b60008061104e84848080601f016020809104026020016040519081016040528093929190818152602001838380828437600081840152601f19601f820116905080830192505050505050506114c7565b90506000816040516020016110639190611ee2565b60405160208183030381529060405280519060200120905060016000828152602001908152602001600020600101549250505092915050565b7f000000000000000000000000000000000000000000000000000000000000000073ffffffffffffffffffffffffffffffffffffffff163373ffffffffffffffffffffffffffffffffffffffff161461112a576040517f08c379a000000000000000000000000000000000000000000000000000000000815260040161112190611ce1565b60405180910390fd5b60008054906101000a900460ff1680156111515750600060019054906101000a900460ff16155b611190576040517f08c379a00000000000000000000000000000000000000000000000000000000081526004016111879061233a565b60405180910390fd5b6001600060016101000a81548160ff0219169083151502179055507f7a19ed057db79e3c2fa0b97a54b43bef4fce74b31bb6c01af514b9a18a7f70ab60405160405180910390a160005b600280549050811015611346576000600282815481106111fd576111fc611d6d565b5b906000526020600020015490506000806112168361091e565b91509150600060036000858152602001908152602001600020805461123a90611f94565b80601f016020809104026020016040519081016040528092919081815260200182805461126690611f94565b80156112b35780601f10611288576101008083540402835291602001916112b3565b820191906000526020600020905b81548152906001019060200180831161129657829003601f168201915b5050505050905060005b835181101561132e577f1e43f1bd0826319650f82fe661065b838421080d6e0c25e83fd23a67098e1899828583815181106112fb576112fa611d6d565b5b6020026020010151856040516113139392919061235a565b60405180910390a1808061132690611e5d565b9150506112bd565b5050505050808061133e90611e5d565b9150506111da565b50565b60008061139984848080601f016020809104026020016040519081016040528093929190818152602001838380828437600081840152601f19601f820116905080830192505050505050506114c7565b90506000816040516020016113ae9190611ee2565b604051602081830303815290604052805190602001209050600460008773ffffffffffffffffffffffffffffffffffffffff1673ffffffffffffffffffffffffffffffffffffffff168152602001908152602001600020600001600082815260200190815260200160002060009054906101000a900460ff16925050509392505050565b606060008061148485858080601f016020809104026020016040519081016040528093929190818152602001838380828437600081840152601f19601f820116905080830192505050505050506114c7565b90506000816040516020016114999190611ee2565b6040516020818303038152906040528051906020012090506114ba8161091e565b9350935050509250929050565b6060600082905060005b81518110156115bd5760418282815181106114ef576114ee611d6d565b5b602001015160f81c60f81b60f81c60ff16101580156115325750605a82828151811061151e5761151d611d6d565b5b602001015160f81c60f81b60f81c60ff1611155b156115aa57602082828151811061154c5761154b611d6d565b5b602001015160f81c60f81b60f81c61156491906123ac565b60f81b82828151811061157a57611579611d6d565b5b60200101907effffffffffffffffffffffffffffffffffffffffffffffffffffffffffffff1916908160001a9053505b80806115b590611e5d565b9150506114d1565b5080915050919050565b8280546115d390611f94565b90600052602060002090601f0160209004810192826115f5576000855561163c565b82601f1061160e57803560ff191683800117855561163c565b8280016001018555821561163c579182015b8281111561163b578235825591602001919060010190611620565b5b50905061164991906116d3565b5090565b82805461165990611f94565b90600052602060002090601f01602090048101928261167b57600085556116c2565b82601f1061169457805160ff19168380011785556116c2565b828001600101855582156116c2579182015b828111156116c15782518255916020019190600101906116a6565b5b5090506116cf91906116d3565b5090565b5b808211156116ec5760008160009055506001016116d4565b5090565b600080fd5b600080fd5b600080fd5b600080fd5b600080fd5b60008083601f84011261171f5761171e6116fa565b5b8235905067ffffffffffffffff81111561173c5761173b6116ff565b5b60208301915083600182028301111561175857611757611704565b5b9250929050565b6000819050919050565b6117728161175f565b811461177d57600080fd5b50565b60008135905061178f81611769565b92915050565b6000806000604084860312156117ae576117ad6116f0565b5b600084013567ffffffffffffffff8111156117cc576117cb6116f5565b5b6117d886828701611709565b935093505060206117eb86828701611780565b9150509250925092565b600081519050919050565b600082825260208201905092915050565b60005b8381101561182f578082015181840152602081019050611814565b8381111561183e576000848401525b50505050565b6000601f19601f8301169050919050565b6000611860826117f5565b61186a8185611800565b935061187a818560208601611811565b61188381611844565b840191505092915050565b6118978161175f565b82525050565b600060408201905081810360008301526118b78185611855565b90506118c6602083018461188e565b9392505050565b600080600080604085870312156118e7576118e66116f0565b5b600085013567ffffffffffffffff811115611905576119046116f5565b5b61191187828801611709565b9450945050602085013567ffffffffffffffff811115611934576119336116f5565b5b61194087828801611709565b925092505092959194509250565b6000819050919050565b6119618161194e565b811461196c57600080fd5b50565b60008135905061197e81611958565b92915050565b60006020828403121561199a576119996116f0565b5b60006119a88482850161196f565b91505092915050565b600081519050919050565b600082825260208201905092915050565b6000819050602082019050919050565b600082825260208201905092915050565b60006119f9826117f5565b611a0381856119dd565b9350611a13818560208601611811565b611a1c81611844565b840191505092915050565b6000611a3383836119ee565b905092915050565b6000602082019050919050565b6000611a53826119b1565b611a5d81856119bc565b935083602082028501611a6f856119cd565b8060005b85811015611aab5784840389528151611a8c8582611a27565b9450611a9783611a3b565b925060208a01995050600181019050611a73565b50829750879550505050505092915050565b60006040820190508181036000830152611ad78185611a48565b9050611ae6602083018461188e565b9392505050565b60006020820190508181036000830152611b078184611a48565b905092915050565b60008115159050919050565b611b2481611b0f565b82525050565b6000602082019050611b3f6000830184611b1b565b92915050565b600073ffffffffffffffffffffffffffffffffffffffff82169050919050565b6000611b7082611b45565b9050919050565b611b8081611b65565b82525050565b6000602082019050611b9b6000830184611b77565b92915050565b60008060208385031215611bb857611bb76116f0565b5b600083013567ffffffffffffffff811115611bd657611bd56116f5565b5b611be285828601611709565b92509250509250929050565b6000602082019050611c03600083018461188e565b92915050565b611c1281611b65565b8114611c1d57600080fd5b50565b600081359050611c2f81611c09565b92915050565b600080600060408486031215611c4e57611c4d6116f0565b5b6000611c5c86828701611c20565b935050602084013567ffffffffffffffff811115611c7d57611c7c6116f5565b5b611c8986828701611709565b92509250509250925092565b7f4f6e6c79206f776e65722063616e20706572666f726d20746869730000000000600082015250565b6000611ccb601b83611800565b9150611cd682611c95565b602082019050919050565b60006020820190508181036000830152611cfa81611cbe565b9050919050565b7f4e6f20706f736974696f6e7320746f20766f7465206f6e000000000000000000600082015250565b6000611d37601783611800565b9150611d4282611d01565b602082019050919050565b60006020820190508181036000830152611d6681611d2a565b9050919050565b7f4e487b7100000000000000000000000000000000000000000000000000000000600052603260045260246000fd5b7f4561636820706f736974696f6e206d7573742068617665206174206c6561737460008201527f20322063616e6469646174657300000000000000000000000000000000000000602082015250565b6000611df8602d83611800565b9150611e0382611d9c565b604082019050919050565b60006020820190508181036000830152611e2781611deb565b9050919050565b7f4e487b7100000000000000000000000000000000000000000000000000000000600052601160045260246000fd5b6000611e688261175f565b91507fffffffffffffffffffffffffffffffffffffffffffffffffffffffffffffffff821415611e9b57611e9a611e2e565b5b600182019050919050565b600081905092915050565b6000611ebc826117f5565b611ec68185611ea6565b9350611ed6818560208601611811565b80840191505092915050565b6000611eee8284611eb1565b915081905092915050565b7f496e76616c69642063616e646964617465204944000000000000000000000000600082015250565b6000611f2f601483611800565b9150611f3a82611ef9565b602082019050919050565b60006020820190508181036000830152611f5e81611f22565b9050919050565b7f4e487b7100000000000000000000000000000000000000000000000000000000600052602260045260246000fd5b60006002820490506001821680611fac57607f821691505b60208210811415611fc057611fbf611f65565b5b50919050565b7f43616e6e6f74206164642063616e6469646174657320616674657220766f746960008201527f6e67207374617274730000000000000000000000000000000000000000000000602082015250565b6000612022602983611800565b915061202d82611fc6565b604082019050919050565b6000602082019050818103600083015261205181612015565b9050919050565b82818337600083830152505050565b60006120738385611800565b9350612080838584612058565b61208983611844565b840190509392505050565b600060608201905081810360008301526120af818789612067565b90506120be602083018661188e565b81810360408301526120d1818486612067565b90509695505050505050565b7f566f74696e67206e6f7420656e64656420796574000000000000000000000000600082015250565b6000612113601483611800565b915061211e826120dd565b602082019050919050565b6000602082019050818103600083015261214281612106565b9050919050565b7f4e487b7100000000000000000000000000000000000000000000000000000000600052604160045260246000fd5b7f566f74696e67206973206e6f7420616374697665000000000000000000000000600082015250565b60006121ae601483611800565b91506121b982612178565b602082019050919050565b600060208201905081810360008301526121dd816121a1565b9050919050565b7f416c726561647920766f74656420666f72207468697320706f736974696f6e00600082015250565b600061221a601f83611800565b9150612225826121e4565b602082019050919050565b600060208201905081810360008301526122498161220d565b9050919050565b7f496e76616c69642063616e646964617465000000000000000000000000000000600082015250565b6000612286601183611800565b915061229182612250565b602082019050919050565b600060208201905081810360008301526122b581612279565b9050919050565b600060408201905081810360008301526122d7818587612067565b90506122e6602083018461188e565b949350505050565b7f566f74696e67206e6f7420616374697665000000000000000000000000000000600082015250565b6000612324601183611800565b915061232f826122ee565b602082019050919050565b6000602082019050818103600083015261235381612317565b9050919050565b600060608201905081810360008301526123748186611855565b905081810360208301526123888185611855565b9050612397604083018461188e565b949350505050565b600060ff82169050919050565b60006123b78261239f565b91506123c28361239f565b92508260ff038211156123d8576123d7611e2e565b5b82820190509291505056fea2646970667358221220e9a64529369cecee57a42dfc64f0f002f6d04f9a6907bce7dfba81c1a5ba0f4564736f6c63430008090033",
  "linkReferences": {},
  "deployedLinkReferences": {}
}