{
  "_format": "hh-sol-artifact-1",
  "contractName": "VotingSystem",
  "sourceName": "contracts/voting.sol",
  "abi": [
    {
      "inputs": [],
      "stateMutability": "nonpayable",
      "type": "constructor"
    },
    {
      "anonymous": false,
      "inputs": [
        {
          "indexed": false,
          "internalType": "string",
          "name": "position",
          "type": "string"
        },
        {
          "indexed": false,
          "internalType": "uint256",
          "name": "candidateId",
          "type": "uint256"
        },
        {
          "indexed": false,
          "internalType": "string",
          "name": "name",
          "type": "string"
        }
      ],
      "name": "CandidateAdded",
      "type": "event"
    },
    {
      "anonymous": false,
      "inputs": [
        {
          "indexed": true,
          "internalType": "address",
          "name": "voter",
          "type": "address"
        },
        {
          "indexed": false,
          "internalType": "string",
          "name": "position",
          "type": "string"
        },
        {
          "indexed": false,
          "internalType": "uint256",
          "name": "candidateId",
          "type": "uint256"
        }
      ],
      "name": "Voted",
      "type": "event"
    },
    {
      "anonymous": false,
      "inputs": [],
      "name": "VotingEnded",
      "type": "event"
    },
    {
      "anonymous": false,
      "inputs": [
        {
          "indexed": false,
          "internalType": "uint256",
          "name": "startTime",
          "type": "uint256"
        },
        {
          "indexed": false,
          "internalType": "uint256",
          "name": "endTime",
          "type": "uint256"
        }
      ],
      "name": "VotingStarted",
      "type": "event"
    },
    {
      "anonymous": false,
      "inputs": [
        {
          "indexed": false,
          "internalType": "string",
          "name": "position",
          "type": "string"
        },
        {
          "indexed": false,
          "internalType": "string",
          "name": "name",
          "type": "string"
        },
        {
          "indexed": false,
          "internalType": "uint256",
          "name": "votes",
          "type": "uint256"
        }
      ],
      "name": "WinnerDeclared",
      "type": "event"
    },
    {
      "inputs": [
        {
          "internalType": "string",
          "name": "position",
          "type": "string"
        },
        {
          "internalType": "string",
          "name": "_name",
          "type": "string"
        }
      ],
      "name": "addCandidate",
      "outputs": [],
      "stateMutability": "nonpayable",
      "type": "function"
    },
    {
      "inputs": [],
      "name": "endVoting",
      "outputs": [],
      "stateMutability": "nonpayable",
      "type": "function"
    },
    {
      "inputs": [
        {
          "internalType": "string",
          "name": "position",
          "type": "string"
        },
        {
          "internalType": "uint256",
          "name": "candidateId",
          "type": "uint256"
        }
      ],
      "name": "getCandidate",
      "outputs": [
        {
          "internalType": "string",
          "name": "",
          "type": "string"
        },
        {
          "internalType": "uint256",
          "name": "",
          "type": "uint256"
        }
      ],
      "stateMutability": "view",
      "type": "function"
    },
    {
      "inputs": [
        {
          "internalType": "string",
          "name": "position",
          "type": "string"
        }
      ],
      "name": "getCandidateCount",
      "outputs": [
        {
          "internalType": "uint256",
          "name": "",
          "type": "uint256"
        }
      ],
      "stateMutability": "view",
      "type": "function"
    },
    {
      "inputs": [],
      "name": "getOwner",
      "outputs": [
        {
          "internalType": "address",
          "name": "",
          "type": "address"
        }
      ],
      "stateMutability": "view",
      "type": "function"
    },
    {
      "inputs": [],
      "name": "getPositions",
      "outputs": [
        {
          "internalType": "string[]",
          "name": "",
          "type": "string[]"
        }
      ],
      "stateMutability": "view",
      "type": "function"
    },
    {
      "inputs": [
        {
          "internalType": "bytes32",
          "name": "positionKey",
          "type": "bytes32"
        }
      ],
      "name": "getWinners",
      "outputs": [
        {
          "internalType": "string[]",
          "name": "names",
          "type": "string[]"
        },
        {
          "internalType": "uint256",
          "name": "votes",
          "type": "uint256"
        }
      ],
      "stateMutability": "view",
      "type": "function"
    },
    {
      "inputs": [
        {
          "internalType": "string",
          "name": "position",
          "type": "string"
        }
      ],
      "name": "getWinnersByPosition",
      "outputs": [
        {
          "internalType": "string[]",
          "name": "",
          "type": "string[]"
        },
        {
          "internalType": "uint256",
          "name": "",
          "type": "uint256"
        }
      ],
      "stateMutability": "view",
      "type": "function"
    },
    {
      "inputs": [
        {
          "internalType": "address",
          "name": "voterAddr",
          "type": "address"
        },
        {
          "internalType": "string",
          "name": "position",
          "type": "string"
        }
      ],
      "name": "hasVoted",
      "outputs": [
        {
          "internalType": "bool",
          "name": "",
          "type": "bool"
        }
      ],
      "stateMutability": "view",
      "type": "function"
    },
    {
      "inputs": [],
      "name": "owner",
      "outputs": [
        {
          "internalType": "address",
          "name": "",
          "type": "address"
        }
      ],
      "stateMutability": "view",
      "type": "function"
    },
    {
      "inputs": [
        {
          "internalType": "uint256",
          "name": "_start",
          "type": "uint256"
        },
        {
          "internalType": "uint256",
          "name": "_end",
          "type": "uint256"
        }
      ],
      "name": "setVotingPeriod",
      "outputs": [],
      "stateMutability": "nonpayable",
      "type": "function"
    },
    {
      "inputs": [],
      "name": "startVoting",
      "outputs": [],
      "stateMutability": "nonpayable",
      "type": "function"
    },
    {
      "inputs": [
        {
          "internalType": "string",
          "name": "position",
          "type": "string"
        },
        {
          "internalType": "uint256",
          "name": "candidateId",
          "type": "uint256"
        }
      ],
      "name": "vote",
      "outputs": [],
      "stateMutability": "nonpayable",
      "type": "function"
    },
    {
      "inputs": [],
      "name": "votingEndTime",
      "outputs": [
        {
          "internalType": "uint256",
          "name": "",
          "type": "uint256"
        }
      ],
      "stateMutability": "view",
      "type": "function"
    },
    {
      "inputs": [],
      "name": "votingEnded",
      "outputs": [
        {
          "internalType": "bool",
          "name": "",
          "type": "bool"
        }
      ],
      "stateMutability": "view",
      "type": "function"
    },
    {
      "inputs": [],
      "name": "votingStartTime",
      "outputs": [
        {
          "internalType": "uint256",
          "name": "",
          "type": "uint256"
        }
      ],
      "stateMutability": "view",
      "type": "function"
    },
    {
      "inputs": [],
      "name": "votingStarted",
      "outputs": [
        {
          "internalType": "bool",
          "name": "",
          "type": "bool"
        }
      ],
      "stateMutability": "view",
      "type": "function"
    }
  ],
  "bytecode": "0x60a060405234801561001057600080fd5b503373ffffffffffffffffffffffffffffffffffffffff1660808173ffffffffffffffffffffffffffffffffffffffff16815250506080516129a3610083600039600081816103450152818161072b01528181610e4501528181610e6b01528181610ea201526113a301526129a36000f3fe608060405234801561001057600080fd5b506004361061010b5760003560e01c8063893d20e8116100a2578063a638580311610071578063a638580314610286578063ae179ebc146102a2578063c3403ddf146102d2578063c6847060146102dc578063e0bec11f1461030c5761010b565b8063893d20e8146102105780638da5cb5b1461022e5780639d5a05291461024c578063a15a36c71461026a5761010b565b806326541b56116100de57806326541b56146101875780634a61fc1e146101a357806380275860146101d457806383d948b7146101f25761010b565b80631ea736e0146101105780631ec6b60a1461012e5780631eccd22f146101385780632019a60814610169575b600080fd5b61011861033d565b6040516101259190611a0e565b60405180910390f35b610136610343565b005b610152600480360381019061014d9190611ac4565b61057c565b604051610160929190611bbd565b60405180910390f35b610171610723565b60405161017e9190611a0e565b60405180910390f35b6101a1600480360381019061019c9190611bed565b610729565b005b6101bd60048036038101906101b89190611ca4565b610a41565b6040516101cb929190611ddd565b60405180910390f35b6101dc610cd4565b6040516101e99190611e0d565b60405180910390f35b6101fa610e30565b6040516102079190611e4a565b60405180910390f35b610218610e41565b6040516102259190611ea6565b60405180910390f35b610236610e69565b6040516102439190611ea6565b60405180910390f35b610254610e8d565b6040516102619190611e4a565b60405180910390f35b610284600480360381019061027f9190611ec1565b610ea0565b005b6102a0600480360381019061029b9190611ac4565b610fd0565b005b6102bc60048036038101906102b79190611f01565b611303565b6040516102c99190611a0e565b60405180910390f35b6102da6113a1565b005b6102f660048036038101906102f19190611f7a565b61164e565b6040516103039190611e4a565b60405180910390f35b61032660048036038101906103219190611f01565b611737565b604051610334929190611ddd565b60405180910390f35b60025481565b7f000000000000000000000000000000000000000000000000000000000000000073ffffffffffffffffffffffffffffffffffffffff163373ffffffffffffffffffffffffffffffffffffffff16146103d1576040517f08c379a00000000000000000000000000000000000000000000000000000000081526004016103c890612026565b60405180910390fd5b600060048054905011610419576040517f08c379a000000000000000000000000000000000000000000000000000000000815260040161041090612092565b60405180910390fd5b60005b6004805490508110156104b45760026003600060048481548110610443576104426120b2565b5b906000526020600020015481526020019081526020016000206001015410156104a1576040517f08c379a000000000000000000000000000000000000000000000000000000000815260040161049890612153565b60405180910390fd5b80806104ac906121a2565b91505061041c565b5060006001541180156104ca5750600154600254115b610509576040517f08c379a000000000000000000000000000000000000000000000000000000000815260040161050090612237565b60405180910390fd5b60016000806101000a81548160ff02191690831515021790555060008060016101000a81548160ff0219169083151502179055507ff8c022056754dbacca05aff710dc315a2fa7699ae9309fda403cd1e55c11d40f600154600254604051610572929190612257565b60405180910390a1565b60606000806105ce86868080601f016020809104026020016040519081016040528093929190818152602001838380828437600081840152601f19601f820116905080830192505050505050506117cc565b90506000816040516020016105e391906122bc565b6040516020818303038152906040528051906020012090506000600360008381526020019081526020016000209050600086118015610626575080600101548611155b610665576040517f08c379a000000000000000000000000000000000000000000000000000000000815260040161065c9061231f565b60405180910390fd5b600081600201600088815260200190815260200160002090508060010181600201548180546106939061236e565b80601f01602080910402602001604051908101604052809291908181526020018280546106bf9061236e565b801561070c5780601f106106e15761010080835404028352916020019161070c565b820191906000526020600020905b8154815290600101906020018083116106ef57829003601f168201915b505050505091509550955050505050935093915050565b60015481565b7f000000000000000000000000000000000000000000000000000000000000000073ffffffffffffffffffffffffffffffffffffffff163373ffffffffffffffffffffffffffffffffffffffff16146107b7576040517f08c379a00000000000000000000000000000000000000000000000000000000081526004016107ae90612026565b60405180910390fd5b60008054906101000a900460ff1615610805576040517f08c379a00000000000000000000000000000000000000000000000000000000081526004016107fc90612412565b60405180910390fd5b600061085485858080601f016020809104026020016040519081016040528093929190818152602001838380828437600081840152601f19601f820116905080830192505050505050506117cc565b905060008160405160200161086991906122bc565b60405160208183030381529060405280519060200120905060006003600083815260200190815260200160002060010154141561091357600481908060018154018082558091505060019003906000526020600020016000909190919091505585856003600084815260200190815260200160002060000191906108ee9291906118cc565b5085856005600084815260200190815260200160002091906109119291906118cc565b505b600060036000838152602001908152602001600020905080600101600081548092919061093f906121a2565b919050555060405180606001604052808260010154815260200186868080601f016020809104026020016040519081016040528093929190818152602001838380828437600081840152601f19601f8201169050808301925050505050505081526020016000815250816002016000836001015481526020019081526020016000206000820151816000015560208201518160010190805190602001906109e7929190611952565b50604082015181600201559050507fdbbc48772584850c2086f66c22a3654c9e46524ff539fd9d72198d91cb7c13c0878783600101548888604051610a3095949392919061246e565b60405180910390a150505050505050565b606060008060019054906101000a900460ff16610a93576040517f08c379a0000000000000000000000000000000000000000000000000000000008152600401610a8a90612503565b60405180910390fd5b6000600360008581526020019081526020016000209050600080600190505b82600101548111610b0c5781836002016000838152602001908152602001600020600201541115610af9578260020160008281526020019081526020016000206002015491505b8080610b04906121a2565b915050610ab2565b50600080600190505b83600101548111610b625782846002016000838152602001908152602001600020600201541415610b4f578180610b4b906121a2565b9250505b8080610b5a906121a2565b915050610b15565b508067ffffffffffffffff811115610b7d57610b7c612523565b5b604051908082528060200260200182016040528015610bb057816020015b6060815260200190600190039081610b9b5790505b509450600080600190505b84600101548111610cc75783856002016000838152602001908152602001600020600201541415610cb4578460020160008281526020019081526020016000206001018054610c099061236e565b80601f0160208091040260200160405190810160405280929190818152602001828054610c359061236e565b8015610c825780601f10610c5757610100808354040283529160200191610c82565b820191906000526020600020905b815481529060010190602001808311610c6557829003601f168201915b5050505050878381518110610c9a57610c996120b2565b5b60200260200101819052508180610cb0906121a2565b9250505b8080610cbf906121a2565b915050610bbb565b5082945050505050915091565b6060600060048054905067ffffffffffffffff811115610cf757610cf6612523565b5b604051908082528060200260200182016040528015610d2a57816020015b6060815260200190600190039081610d155790505b50905060005b600480549050811015610e28576005600060048381548110610d5557610d546120b2565b5b906000526020600020015481526020019081526020016000208054610d799061236e565b80601f0160208091040260200160405190810160405280929190818152602001828054610da59061236e565b8015610df25780601f10610dc757610100808354040283529160200191610df2565b820191906000526020600020905b815481529060010190602001808311610dd557829003601f168201915b5050505050828281518110610e0a57610e096120b2565b5b60200260200101819052508080610e20906121a2565b915050610d30565b508091505090565b60008054906101000a900460ff1681565b60007f0000000000000000000000000000000000000000000000000000000000000000905090565b7f000000000000000000000000000000000000000000000000000000000000000081565b600060019054906101000a900460ff1681565b7f000000000000000000000000000000000000000000000000000000000000000073ffffffffffffffffffffffffffffffffffffffff163373ffffffffffffffffffffffffffffffffffffffff1614610f2e576040517f08c379a0000000000000000000000000000000000000000000000000000000008152600401610f2590612026565b60405180910390fd5b60008054906101000a900460ff1615610f7c576040517f08c379a0000000000000000000000000000000000000000000000000000000008152600401610f739061259e565b60405180910390fd5b808210610fbe576040517f08c379a0000000000000000000000000000000000000000000000000000000008152600401610fb59061260a565b60405180910390fd5b81600181905550806002819055505050565b60008054906101000a900460ff168015610ff75750600060019054906101000a900460ff16155b611036576040517f08c379a000000000000000000000000000000000000000000000000000000000815260040161102d90612676565b60405180910390fd5b60015442101561107b576040517f08c379a0000000000000000000000000000000000000000000000000000000008152600401611072906126e2565b60405180910390fd5b6002544211156110c0576040517f08c379a00000000000000000000000000000000000000000000000000000000081526004016110b79061274e565b60405180910390fd5b600061110f84848080601f016020809104026020016040519081016040528093929190818152602001838380828437600081840152601f19601f820116905080830192505050505050506117cc565b905060008160405160200161112491906122bc565b6040516020818303038152906040528051906020012090506000600660003373ffffffffffffffffffffffffffffffffffffffff1673ffffffffffffffffffffffffffffffffffffffff168152602001908152602001600020905080600001600083815260200190815260200160002060009054906101000a900460ff16156111e2576040517f08c379a00000000000000000000000000000000000000000000000000000000081526004016111d9906127ba565b60405180910390fd5b600060036000848152602001908152602001600020905060008511801561120d575080600101548511155b61124c576040517f08c379a000000000000000000000000000000000000000000000000000000000815260040161124390612826565b60405180910390fd5b8060020160008681526020019081526020016000206002016000815480929190611275906121a2565b9190505550600182600001600085815260200190815260200160002060006101000a81548160ff0219169083151502179055503373ffffffffffffffffffffffffffffffffffffffff167f35b4034b2bbe10bb07b21969c986794a6276a531bb155886a9f883bb5c9dc8e88888886040516112f293929190612846565b60405180910390a250505050505050565b60008061135384848080601f016020809104026020016040519081016040528093929190818152602001838380828437600081840152601f19601f820116905080830192505050505050506117cc565b905060008160405160200161136891906122bc565b60405160208183030381529060405280519060200120905060036000828152602001908152602001600020600101549250505092915050565b7f000000000000000000000000000000000000000000000000000000000000000073ffffffffffffffffffffffffffffffffffffffff163373ffffffffffffffffffffffffffffffffffffffff161461142f576040517f08c379a000000000000000000000000000000000000000000000000000000000815260040161142690612026565b60405180910390fd5b60008054906101000a900460ff1680156114565750600060019054906101000a900460ff16155b611495576040517f08c379a000000000000000000000000000000000000000000000000000000000815260040161148c906128c4565b60405180910390fd5b6001600060016101000a81548160ff0219169083151502179055507f7a19ed057db79e3c2fa0b97a54b43bef4fce74b31bb6c01af514b9a18a7f70ab60405160405180910390a160005b60048054905081101561164b57600060048281548110611502576115016120b2565b5b9060005260206000200154905060008061151b83610a41565b91509150600060056000858152602001908152602001600020805461153f9061236e565b80601f016020809104026020016040519081016040528092919081815260200182805461156b9061236e565b80156115b85780601f1061158d576101008083540402835291602001916115b8565b820191906000526020600020905b81548152906001019060200180831161159b57829003601f168201915b5050505050905060005b8351811015611633577f1e43f1bd0826319650f82fe661065b838421080d6e0c25e83fd23a67098e189982858381518110611600576115ff6120b2565b5b602002602001015185604051611618939291906128e4565b60405180910390a1808061162b906121a2565b9150506115c2565b50505050508080611643906121a2565b9150506114df565b50565b60008061169e84848080601f016020809104026020016040519081016040528093929190818152602001838380828437600081840152601f19601f820116905080830192505050505050506117cc565b90506000816040516020016116b391906122bc565b604051602081830303815290604052805190602001209050600660008773ffffffffffffffffffffffffffffffffffffffff1673ffffffffffffffffffffffffffffffffffffffff168152602001908152602001600020600001600082815260200190815260200160002060009054906101000a900460ff16925050509392505050565b606060008061178985858080601f016020809104026020016040519081016040528093929190818152602001838380828437600081840152601f19601f820116905080830192505050505050506117cc565b905060008160405160200161179e91906122bc565b6040516020818303038152906040528051906020012090506117bf81610a41565b9350935050509250929050565b6060600082905060005b81518110156118c25760418282815181106117f4576117f36120b2565b5b602001015160f81c60f81b60f81c60ff16101580156118375750605a828281518110611823576118226120b2565b5b602001015160f81c60f81b60f81c60ff1611155b156118af576020828281518110611851576118506120b2565b5b602001015160f81c60f81b60f81c6118699190612936565b60f81b82828151811061187f5761187e6120b2565b5b60200101907effffffffffffffffffffffffffffffffffffffffffffffffffffffffffffff1916908160001a9053505b80806118ba906121a2565b9150506117d6565b5080915050919050565b8280546118d89061236e565b90600052602060002090601f0160209004810192826118fa5760008555611941565b82601f1061191357803560ff1916838001178555611941565b82800160010185558215611941579182015b82811115611940578235825591602001919060010190611925565b5b50905061194e91906119d8565b5090565b82805461195e9061236e565b90600052602060002090601f01602090048101928261198057600085556119c7565b82601f1061199957805160ff19168380011785556119c7565b828001600101855582156119c7579182015b828111156119c65782518255916020019190600101906119ab565b5b5090506119d491906119d8565b5090565b5b808211156119f15760008160009055506001016119d9565b5090565b6000819050919050565b611a08816119f5565b82525050565b6000602082019050611a2360008301846119ff565b92915050565b600080fd5b600080fd5b600080fd5b600080fd5b600080fd5b60008083601f840112611a5857611a57611a33565b5b8235905067ffffffffffffffff811115611a7557611a74611a38565b5b602083019150836001820283011115611a9157611a90611a3d565b5b9250929050565b611aa1816119f5565b8114611aac57600080fd5b50565b600081359050611abe81611a98565b92915050565b600080600060408486031215611add57611adc611a29565b5b600084013567ffffffffffffffff811115611afb57611afa611a2e565b5b611b0786828701611a42565b93509350506020611b1a86828701611aaf565b9150509250925092565b600081519050919050565b600082825260208201905092915050565b60005b83811015611b5e578082015181840152602081019050611b43565b83811115611b6d576000848401525b50505050565b6000601f19601f8301169050919050565b6000611b8f82611b24565b611b998185611b2f565b9350611ba9818560208601611b40565b611bb281611b73565b840191505092915050565b60006040820190508181036000830152611bd78185611b84565b9050611be660208301846119ff565b9392505050565b60008060008060408587031215611c0757611c06611a29565b5b600085013567ffffffffffffffff811115611c2557611c24611a2e565b5b611c3187828801611a42565b9450945050602085013567ffffffffffffffff811115611c5457611c53611a2e565b5b611c6087828801611a42565b925092505092959194509250565b6000819050919050565b611c8181611c6e565b8114611c8c57600080fd5b50565b600081359050611c9e81611c78565b92915050565b600060208284031215611cba57611cb9611a29565b5b6000611cc884828501611c8f565b91505092915050565b600081519050919050565b600082825260208201905092915050565b6000819050602082019050919050565b600082825260208201905092915050565b6000611d1982611b24565b611d238185611cfd565b9350611d33818560208601611b40565b611d3c81611b73565b840191505092915050565b6000611d538383611d0e565b905092915050565b6000602082019050919050565b6000611d7382611cd1565b611d7d8185611cdc565b935083602082028501611d8f85611ced565b8060005b85811015611dcb5784840389528151611dac8582611d47565b9450611db783611d5b565b925060208a01995050600181019050611d93565b50829750879550505050505092915050565b60006040820190508181036000830152611df78185611d68565b9050611e0660208301846119ff565b9392505050565b60006020820190508181036000830152611e278184611d68565b905092915050565b60008115159050919050565b611e4481611e2f565b82525050565b6000602082019050611e5f6000830184611e3b565b92915050565b600073ffffffffffffffffffffffffffffffffffffffff82169050919050565b6000611e9082611e65565b9050919050565b611ea081611e85565b82525050565b6000602082019050611ebb6000830184611e97565b92915050565b60008060408385031215611ed857611ed7611a29565b5b6000611ee685828601611aaf565b9250506020611ef785828601611aaf565b9150509250929050565b60008060208385031215611f1857611f17611a29565b5b600083013567ffffffffffffffff811115611f3657611f35611a2e565b5b611f4285828601611a42565b92509250509250929050565b611f5781611e85565b8114611f6257600080fd5b50565b600081359050611f7481611f4e565b92915050565b600080600060408486031215611f9357611f92611a29565b5b6000611fa186828701611f65565b935050602084013567ffffffffffffffff811115611fc257611fc1611a2e565b5b611fce86828701611a42565b92509250509250925092565b7f4f6e6c79206f776e65722063616e20706572666f726d20746869730000000000600082015250565b6000612010601b83611b2f565b915061201b82611fda565b602082019050919050565b6000602082019050818103600083015261203f81612003565b9050919050565b7f4e6f20706f736974696f6e7320746f20766f7465206f6e000000000000000000600082015250565b600061207c601783611b2f565b915061208782612046565b602082019050919050565b600060208201905081810360008301526120ab8161206f565b9050919050565b7f4e487b7100000000000000000000000000000000000000000000000000000000600052603260045260246000fd5b7f4561636820706f736974696f6e206d7573742068617665206174206c6561737460008201527f20322063616e6469646174657300000000000000000000000000000000000000602082015250565b600061213d602d83611b2f565b9150612148826120e1565b604082019050919050565b6000602082019050818103600083015261216c81612130565b9050919050565b7f4e487b7100000000000000000000000000000000000000000000000000000000600052601160045260246000fd5b60006121ad826119f5565b91507fffffffffffffffffffffffffffffffffffffffffffffffffffffffffffffffff8214156121e0576121df612173565b5b600182019050919050565b7f566f74696e6720706572696f64206e6f74207365740000000000000000000000600082015250565b6000612221601583611b2f565b915061222c826121eb565b602082019050919050565b6000602082019050818103600083015261225081612214565b9050919050565b600060408201905061226c60008301856119ff565b61227960208301846119ff565b9392505050565b600081905092915050565b600061229682611b24565b6122a08185612280565b93506122b0818560208601611b40565b80840191505092915050565b60006122c8828461228b565b915081905092915050565b7f496e76616c69642063616e646964617465204944000000000000000000000000600082015250565b6000612309601483611b2f565b9150612314826122d3565b602082019050919050565b60006020820190508181036000830152612338816122fc565b9050919050565b7f4e487b7100000000000000000000000000000000000000000000000000000000600052602260045260246000fd5b6000600282049050600182168061238657607f821691505b6020821081141561239a5761239961233f565b5b50919050565b7f43616e6e6f74206164642063616e6469646174657320616674657220766f746960008201527f6e67207374617274730000000000000000000000000000000000000000000000602082015250565b60006123fc602983611b2f565b9150612407826123a0565b604082019050919050565b6000602082019050818103600083015261242b816123ef565b9050919050565b82818337600083830152505050565b600061244d8385611b2f565b935061245a838584612432565b61246383611b73565b840190509392505050565b60006060820190508181036000830152612489818789612441565b905061249860208301866119ff565b81810360408301526124ab818486612441565b90509695505050505050565b7f566f74696e67206e6f7420656e64656420796574000000000000000000000000600082015250565b60006124ed601483611b2f565b91506124f8826124b7565b602082019050919050565b6000602082019050818103600083015261251c816124e0565b9050919050565b7f4e487b7100000000000000000000000000000000000000000000000000000000600052604160045260246000fd5b7f566f74696e6720616c7265616479207374617274656400000000000000000000600082015250565b6000612588601683611b2f565b915061259382612552565b602082019050919050565b600060208201905081810360008301526125b78161257b565b9050919050565b7f496e76616c696420766f74696e6720706572696f640000000000000000000000600082015250565b60006125f4601583611b2f565b91506125ff826125be565b602082019050919050565b60006020820190508181036000830152612623816125e7565b9050919050565b7f566f74696e67206973206e6f7420616374697665000000000000000000000000600082015250565b6000612660601483611b2f565b915061266b8261262a565b602082019050919050565b6000602082019050818103600083015261268f81612653565b9050919050565b7f566f74696e67206861736e277420737461727465642079657400000000000000600082015250565b60006126cc601983611b2f565b91506126d782612696565b602082019050919050565b600060208201905081810360008301526126fb816126bf565b9050919050565b7f566f74696e672068617320656e64656400000000000000000000000000000000600082015250565b6000612738601083611b2f565b915061274382612702565b602082019050919050565b600060208201905081810360008301526127678161272b565b9050919050565b7f416c726561647920766f74656420666f72207468697320706f736974696f6e00600082015250565b60006127a4601f83611b2f565b91506127af8261276e565b602082019050919050565b600060208201905081810360008301526127d381612797565b9050919050565b7f496e76616c69642063616e646964617465000000000000000000000000000000600082015250565b6000612810601183611b2f565b915061281b826127da565b602082019050919050565b6000602082019050818103600083015261283f81612803565b9050919050565b60006040820190508181036000830152612861818587612441565b905061287060208301846119ff565b949350505050565b7f566f74696e67206e6f7420616374697665000000000000000000000000000000600082015250565b60006128ae601183611b2f565b91506128b982612878565b602082019050919050565b600060208201905081810360008301526128dd816128a1565b9050919050565b600060608201905081810360008301526128fe8186611b84565b905081810360208301526129128185611b84565b905061292160408301846119ff565b949350505050565b600060ff82169050919050565b600061294182612929565b915061294c83612929565b92508260ff0382111561296257612961612173565b5b82820190509291505056fea264697066735822122052c76f3a3737df05485e28241a695b2332d013f8f588f77910694a737c3932ea64736f6c63430008090033",
  "linkReferences": {},
  "deployedLinkReferences": {}
}